{
  "contractName": "NounsToken",
  "abi": [
    {
      "inputs": [
        {
          "internalType": "address",
          "name": "_minter",
          "type": "address"
        },
        {
          "internalType": "contract INounsDescriptor",
          "name": "_descriptor",
          "type": "address"
        },
        {
          "internalType": "contract INounsSeeder",
          "name": "_seeder",
          "type": "address"
        },
        {
          "internalType": "contract IProxyRegistry",
          "name": "_proxyRegistry",
          "type": "address"
        }
      ],
      "stateMutability": "nonpayable",
      "type": "constructor"
    },
    {
      "anonymous": false,
      "inputs": [
        {
          "indexed": true,
          "internalType": "address",
          "name": "owner",
          "type": "address"
        },
        {
          "indexed": true,
          "internalType": "address",
          "name": "approved",
          "type": "address"
        },
        {
          "indexed": true,
          "internalType": "uint256",
          "name": "tokenId",
          "type": "uint256"
        }
      ],
      "name": "Approval",
      "type": "event"
    },
    {
      "anonymous": false,
      "inputs": [
        {
          "indexed": true,
          "internalType": "address",
          "name": "owner",
          "type": "address"
        },
        {
          "indexed": true,
          "internalType": "address",
          "name": "operator",
          "type": "address"
        },
        {
          "indexed": false,
          "internalType": "bool",
          "name": "approved",
          "type": "bool"
        }
      ],
      "name": "ApprovalForAll",
      "type": "event"
    },
    {
      "anonymous": false,
      "inputs": [
        {
          "indexed": true,
          "internalType": "address",
          "name": "delegator",
          "type": "address"
        },
        {
          "indexed": true,
          "internalType": "address",
          "name": "fromDelegate",
          "type": "address"
        },
        {
          "indexed": true,
          "internalType": "address",
          "name": "toDelegate",
          "type": "address"
        }
      ],
      "name": "DelegateChanged",
      "type": "event"
    },
    {
      "anonymous": false,
      "inputs": [
        {
          "indexed": true,
          "internalType": "address",
          "name": "delegate",
          "type": "address"
        },
        {
          "indexed": false,
          "internalType": "uint256",
          "name": "previousBalance",
          "type": "uint256"
        },
        {
          "indexed": false,
          "internalType": "uint256",
          "name": "newBalance",
          "type": "uint256"
        }
      ],
      "name": "DelegateVotesChanged",
      "type": "event"
    },
    {
      "anonymous": false,
      "inputs": [],
      "name": "DescriptorLocked",
      "type": "event"
    },
    {
      "anonymous": false,
      "inputs": [
        {
          "indexed": false,
          "internalType": "contract INounsDescriptor",
          "name": "descriptor",
          "type": "address"
        }
      ],
      "name": "DescriptorUpdated",
      "type": "event"
    },
    {
      "anonymous": false,
      "inputs": [],
      "name": "MinterLocked",
      "type": "event"
    },
    {
      "anonymous": false,
      "inputs": [
        {
          "indexed": false,
          "internalType": "address",
          "name": "minter",
          "type": "address"
        }
      ],
      "name": "MinterUpdated",
      "type": "event"
    },
    {
      "anonymous": false,
      "inputs": [
        {
          "indexed": true,
          "internalType": "uint256",
          "name": "tokenId",
          "type": "uint256"
        }
      ],
      "name": "NounBurned",
      "type": "event"
    },
    {
      "anonymous": false,
      "inputs": [
        {
          "indexed": true,
          "internalType": "uint256",
          "name": "tokenId",
          "type": "uint256"
        },
        {
          "components": [
            {
              "internalType": "uint48",
              "name": "background",
              "type": "uint48"
            },
            {
              "internalType": "uint48",
              "name": "body",
              "type": "uint48"
            },
            {
              "internalType": "uint48",
              "name": "accessory",
              "type": "uint48"
            },
            {
              "internalType": "uint48",
              "name": "head",
              "type": "uint48"
            },
            {
              "internalType": "uint48",
              "name": "glasses",
              "type": "uint48"
            }
          ],
          "indexed": false,
          "internalType": "struct INounsSeeder.Seed",
          "name": "seed",
          "type": "tuple"
        }
      ],
      "name": "NounCreated",
      "type": "event"
    },
    {
      "anonymous": false,
      "inputs": [
        {
          "indexed": false,
          "internalType": "address",
          "name": "noundersDAO",
          "type": "address"
        }
      ],
      "name": "NoundersDAOUpdated",
      "type": "event"
    },
    {
      "anonymous": false,
      "inputs": [
        {
          "indexed": true,
          "internalType": "address",
          "name": "previousOwner",
          "type": "address"
        },
        {
          "indexed": true,
          "internalType": "address",
          "name": "newOwner",
          "type": "address"
        }
      ],
      "name": "OwnershipTransferred",
      "type": "event"
    },
    {
      "anonymous": false,
      "inputs": [],
      "name": "SeederLocked",
      "type": "event"
    },
    {
      "anonymous": false,
      "inputs": [
        {
          "indexed": false,
          "internalType": "contract INounsSeeder",
          "name": "seeder",
          "type": "address"
        }
      ],
      "name": "SeederUpdated",
      "type": "event"
    },
    {
      "anonymous": false,
      "inputs": [
        {
          "indexed": true,
          "internalType": "address",
          "name": "from",
          "type": "address"
        },
        {
          "indexed": true,
          "internalType": "address",
          "name": "to",
          "type": "address"
        },
        {
          "indexed": true,
          "internalType": "uint256",
          "name": "tokenId",
          "type": "uint256"
        }
      ],
      "name": "Transfer",
      "type": "event"
    },
    {
      "inputs": [],
      "name": "DELEGATION_TYPEHASH",
      "outputs": [
        {
          "internalType": "bytes32",
          "name": "",
          "type": "bytes32"
        }
      ],
      "stateMutability": "view",
      "type": "function",
      "constant": true
    },
    {
      "inputs": [],
      "name": "DOMAIN_TYPEHASH",
      "outputs": [
        {
          "internalType": "bytes32",
          "name": "",
          "type": "bytes32"
        }
      ],
      "stateMutability": "view",
      "type": "function",
      "constant": true
    },
    {
      "inputs": [
        {
          "internalType": "address",
          "name": "to",
          "type": "address"
        },
        {
          "internalType": "uint256",
          "name": "tokenId",
          "type": "uint256"
        }
      ],
      "name": "approve",
      "outputs": [],
      "stateMutability": "nonpayable",
      "type": "function"
    },
    {
      "inputs": [
        {
          "internalType": "address",
          "name": "owner",
          "type": "address"
        }
      ],
      "name": "balanceOf",
      "outputs": [
        {
          "internalType": "uint256",
          "name": "",
          "type": "uint256"
        }
      ],
      "stateMutability": "view",
      "type": "function",
      "constant": true
    },
    {
      "inputs": [
        {
          "internalType": "address",
          "name": "",
          "type": "address"
        },
        {
          "internalType": "uint32",
          "name": "",
          "type": "uint32"
        }
      ],
      "name": "checkpoints",
      "outputs": [
        {
          "internalType": "uint32",
          "name": "fromBlock",
          "type": "uint32"
        },
        {
          "internalType": "uint96",
          "name": "votes",
          "type": "uint96"
        }
      ],
      "stateMutability": "view",
      "type": "function",
      "constant": true
    },
    {
      "inputs": [],
      "name": "decimals",
      "outputs": [
        {
          "internalType": "uint8",
          "name": "",
          "type": "uint8"
        }
      ],
      "stateMutability": "view",
      "type": "function",
      "constant": true
    },
    {
      "inputs": [
        {
          "internalType": "address",
          "name": "delegatee",
          "type": "address"
        }
      ],
      "name": "delegate",
      "outputs": [],
      "stateMutability": "nonpayable",
      "type": "function"
    },
    {
      "inputs": [
        {
          "internalType": "address",
          "name": "delegatee",
          "type": "address"
        },
        {
          "internalType": "uint256",
          "name": "nonce",
          "type": "uint256"
        },
        {
          "internalType": "uint256",
          "name": "expiry",
          "type": "uint256"
        },
        {
          "internalType": "uint8",
          "name": "v",
          "type": "uint8"
        },
        {
          "internalType": "bytes32",
          "name": "r",
          "type": "bytes32"
        },
        {
          "internalType": "bytes32",
          "name": "s",
          "type": "bytes32"
        }
      ],
      "name": "delegateBySig",
      "outputs": [],
      "stateMutability": "nonpayable",
      "type": "function"
    },
    {
      "inputs": [
        {
          "internalType": "address",
          "name": "delegator",
          "type": "address"
        }
      ],
      "name": "delegates",
      "outputs": [
        {
          "internalType": "address",
          "name": "",
          "type": "address"
        }
      ],
      "stateMutability": "view",
      "type": "function",
      "constant": true
    },
    {
      "inputs": [],
      "name": "descriptor",
      "outputs": [
        {
          "internalType": "contract INounsDescriptor",
          "name": "",
          "type": "address"
        }
      ],
      "stateMutability": "view",
      "type": "function",
      "constant": true
    },
    {
      "inputs": [
        {
          "internalType": "uint256",
          "name": "tokenId",
          "type": "uint256"
        }
      ],
      "name": "getApproved",
      "outputs": [
        {
          "internalType": "address",
          "name": "",
          "type": "address"
        }
      ],
      "stateMutability": "view",
      "type": "function",
      "constant": true
    },
    {
      "inputs": [
        {
          "internalType": "address",
          "name": "account",
          "type": "address"
        }
      ],
      "name": "getCurrentVotes",
      "outputs": [
        {
          "internalType": "uint96",
          "name": "",
          "type": "uint96"
        }
      ],
      "stateMutability": "view",
      "type": "function",
      "constant": true
    },
    {
      "inputs": [
        {
          "internalType": "address",
          "name": "account",
          "type": "address"
        },
        {
          "internalType": "uint256",
          "name": "blockNumber",
          "type": "uint256"
        }
      ],
      "name": "getPriorVotes",
      "outputs": [
        {
          "internalType": "uint96",
          "name": "",
          "type": "uint96"
        }
      ],
      "stateMutability": "view",
      "type": "function",
      "constant": true
    },
    {
      "inputs": [],
      "name": "isDescriptorLocked",
      "outputs": [
        {
          "internalType": "bool",
          "name": "",
          "type": "bool"
        }
      ],
      "stateMutability": "view",
      "type": "function",
      "constant": true
    },
    {
      "inputs": [],
      "name": "isMinterLocked",
      "outputs": [
        {
          "internalType": "bool",
          "name": "",
          "type": "bool"
        }
      ],
      "stateMutability": "view",
      "type": "function",
      "constant": true
    },
    {
      "inputs": [],
      "name": "isSeederLocked",
      "outputs": [
        {
          "internalType": "bool",
          "name": "",
          "type": "bool"
        }
      ],
      "stateMutability": "view",
      "type": "function",
      "constant": true
    },
    {
      "inputs": [],
      "name": "minter",
      "outputs": [
        {
          "internalType": "address",
          "name": "",
          "type": "address"
        }
      ],
      "stateMutability": "view",
      "type": "function",
      "constant": true
    },
    {
      "inputs": [],
      "name": "name",
      "outputs": [
        {
          "internalType": "string",
          "name": "",
          "type": "string"
        }
      ],
      "stateMutability": "view",
      "type": "function",
      "constant": true
    },
    {
      "inputs": [
        {
          "internalType": "address",
          "name": "",
          "type": "address"
        }
      ],
      "name": "nonces",
      "outputs": [
        {
          "internalType": "uint256",
          "name": "",
          "type": "uint256"
        }
      ],
      "stateMutability": "view",
      "type": "function",
      "constant": true
    },
    {
      "inputs": [
        {
          "internalType": "address",
          "name": "",
          "type": "address"
        }
      ],
      "name": "numCheckpoints",
      "outputs": [
        {
          "internalType": "uint32",
          "name": "",
          "type": "uint32"
        }
      ],
      "stateMutability": "view",
      "type": "function",
      "constant": true
    },
    {
      "inputs": [],
      "name": "owner",
      "outputs": [
        {
          "internalType": "address",
          "name": "",
          "type": "address"
        }
      ],
      "stateMutability": "view",
      "type": "function",
      "constant": true
    },
    {
      "inputs": [
        {
          "internalType": "uint256",
          "name": "tokenId",
          "type": "uint256"
        }
      ],
      "name": "ownerOf",
      "outputs": [
        {
          "internalType": "address",
          "name": "",
          "type": "address"
        }
      ],
      "stateMutability": "view",
      "type": "function",
      "constant": true
    },
    {
      "inputs": [],
      "name": "proxyRegistry",
      "outputs": [
        {
          "internalType": "contract IProxyRegistry",
          "name": "",
          "type": "address"
        }
      ],
      "stateMutability": "view",
      "type": "function",
      "constant": true
    },
    {
      "inputs": [],
      "name": "renounceOwnership",
      "outputs": [],
      "stateMutability": "nonpayable",
      "type": "function"
    },
    {
      "inputs": [
        {
          "internalType": "address",
          "name": "from",
          "type": "address"
        },
        {
          "internalType": "address",
          "name": "to",
          "type": "address"
        },
        {
          "internalType": "uint256",
          "name": "tokenId",
          "type": "uint256"
        }
      ],
      "name": "safeTransferFrom",
      "outputs": [],
      "stateMutability": "nonpayable",
      "type": "function"
    },
    {
      "inputs": [
        {
          "internalType": "address",
          "name": "from",
          "type": "address"
        },
        {
          "internalType": "address",
          "name": "to",
          "type": "address"
        },
        {
          "internalType": "uint256",
          "name": "tokenId",
          "type": "uint256"
        },
        {
          "internalType": "bytes",
          "name": "_data",
          "type": "bytes"
        }
      ],
      "name": "safeTransferFrom",
      "outputs": [],
      "stateMutability": "nonpayable",
      "type": "function"
    },
    {
      "inputs": [],
      "name": "seeder",
      "outputs": [
        {
          "internalType": "contract INounsSeeder",
          "name": "",
          "type": "address"
        }
      ],
      "stateMutability": "view",
      "type": "function",
      "constant": true
    },
    {
      "inputs": [
        {
          "internalType": "uint256",
          "name": "",
          "type": "uint256"
        }
      ],
      "name": "seeds",
      "outputs": [
        {
          "internalType": "uint48",
          "name": "background",
          "type": "uint48"
        },
        {
          "internalType": "uint48",
          "name": "body",
          "type": "uint48"
        },
        {
          "internalType": "uint48",
          "name": "accessory",
          "type": "uint48"
        },
        {
          "internalType": "uint48",
          "name": "head",
          "type": "uint48"
        },
        {
          "internalType": "uint48",
          "name": "glasses",
          "type": "uint48"
        }
      ],
      "stateMutability": "view",
      "type": "function",
      "constant": true
    },
    {
      "inputs": [
        {
          "internalType": "address",
          "name": "operator",
          "type": "address"
        },
        {
          "internalType": "bool",
          "name": "approved",
          "type": "bool"
        }
      ],
      "name": "setApprovalForAll",
      "outputs": [],
      "stateMutability": "nonpayable",
      "type": "function"
    },
    {
      "inputs": [
        {
          "internalType": "bytes4",
          "name": "interfaceId",
          "type": "bytes4"
        }
      ],
      "name": "supportsInterface",
      "outputs": [
        {
          "internalType": "bool",
          "name": "",
          "type": "bool"
        }
      ],
      "stateMutability": "view",
      "type": "function",
      "constant": true
    },
    {
      "inputs": [],
      "name": "symbol",
      "outputs": [
        {
          "internalType": "string",
          "name": "",
          "type": "string"
        }
      ],
      "stateMutability": "view",
      "type": "function",
      "constant": true
    },
    {
      "inputs": [
        {
          "internalType": "uint256",
          "name": "index",
          "type": "uint256"
        }
      ],
      "name": "tokenByIndex",
      "outputs": [
        {
          "internalType": "uint256",
          "name": "",
          "type": "uint256"
        }
      ],
      "stateMutability": "view",
      "type": "function",
      "constant": true
    },
    {
      "inputs": [
        {
          "internalType": "address",
          "name": "owner",
          "type": "address"
        },
        {
          "internalType": "uint256",
          "name": "index",
          "type": "uint256"
        }
      ],
      "name": "tokenOfOwnerByIndex",
      "outputs": [
        {
          "internalType": "uint256",
          "name": "",
          "type": "uint256"
        }
      ],
      "stateMutability": "view",
      "type": "function",
      "constant": true
    },
    {
      "inputs": [],
      "name": "totalSupply",
      "outputs": [
        {
          "internalType": "uint256",
          "name": "",
          "type": "uint256"
        }
      ],
      "stateMutability": "view",
      "type": "function",
      "constant": true
    },
    {
      "inputs": [
        {
          "internalType": "address",
          "name": "from",
          "type": "address"
        },
        {
          "internalType": "address",
          "name": "to",
          "type": "address"
        },
        {
          "internalType": "uint256",
          "name": "tokenId",
          "type": "uint256"
        }
      ],
      "name": "transferFrom",
      "outputs": [],
      "stateMutability": "nonpayable",
      "type": "function"
    },
    {
      "inputs": [
        {
          "internalType": "address",
          "name": "newOwner",
          "type": "address"
        }
      ],
      "name": "transferOwnership",
      "outputs": [],
      "stateMutability": "nonpayable",
      "type": "function"
    },
    {
      "inputs": [
        {
          "internalType": "address",
          "name": "delegator",
          "type": "address"
        }
      ],
      "name": "votesToDelegate",
      "outputs": [
        {
          "internalType": "uint96",
          "name": "",
          "type": "uint96"
        }
      ],
      "stateMutability": "view",
      "type": "function",
      "constant": true
    },
    {
      "inputs": [],
      "name": "contractURI",
      "outputs": [
        {
          "internalType": "string",
          "name": "",
          "type": "string"
        }
      ],
      "stateMutability": "view",
      "type": "function",
      "constant": true
    },
    {
      "inputs": [
        {
          "internalType": "string",
          "name": "newContractURIHash",
          "type": "string"
        }
      ],
      "name": "setContractURIHash",
      "outputs": [],
      "stateMutability": "nonpayable",
      "type": "function"
    },
    {
      "inputs": [
        {
          "internalType": "address",
          "name": "owner",
          "type": "address"
        },
        {
          "internalType": "address",
          "name": "operator",
          "type": "address"
        }
      ],
      "name": "isApprovedForAll",
      "outputs": [
        {
          "internalType": "bool",
          "name": "",
          "type": "bool"
        }
      ],
      "stateMutability": "view",
      "type": "function",
      "constant": true
    },
    {
      "inputs": [],
      "name": "mint",
      "outputs": [
        {
          "internalType": "uint256",
          "name": "",
          "type": "uint256"
        }
      ],
      "stateMutability": "nonpayable",
      "type": "function"
    },
    {
      "inputs": [],
      "name": "mint2",
      "outputs": [
        {
          "internalType": "uint256",
          "name": "",
          "type": "uint256"
        }
      ],
      "stateMutability": "payable",
      "type": "function",
      "payable": true
    },
    {
      "inputs": [],
      "name": "getCurrentToken",
      "outputs": [
        {
          "internalType": "uint256",
          "name": "",
          "type": "uint256"
        }
      ],
      "stateMutability": "view",
      "type": "function",
      "constant": true
    },
    {
      "inputs": [
        {
          "internalType": "uint256",
          "name": "nounId",
          "type": "uint256"
        }
      ],
      "name": "burn",
      "outputs": [],
      "stateMutability": "nonpayable",
      "type": "function"
    },
    {
      "inputs": [
        {
          "internalType": "uint256",
          "name": "tokenId",
          "type": "uint256"
        }
      ],
      "name": "tokenURI",
      "outputs": [
        {
          "internalType": "string",
          "name": "",
          "type": "string"
        }
      ],
      "stateMutability": "view",
      "type": "function",
      "constant": true
    },
    {
      "inputs": [
        {
          "internalType": "uint256",
          "name": "tokenId",
          "type": "uint256"
        }
      ],
      "name": "dataURI",
      "outputs": [
        {
          "internalType": "string",
          "name": "",
          "type": "string"
        }
      ],
      "stateMutability": "view",
      "type": "function",
      "constant": true
    },
    {
      "inputs": [
        {
          "internalType": "address",
          "name": "_minter",
          "type": "address"
        }
      ],
      "name": "setMinter",
      "outputs": [],
      "stateMutability": "nonpayable",
      "type": "function"
    },
    {
      "inputs": [],
      "name": "lockMinter",
      "outputs": [],
      "stateMutability": "nonpayable",
      "type": "function"
    },
    {
      "inputs": [
        {
          "internalType": "contract INounsDescriptor",
          "name": "_descriptor",
          "type": "address"
        }
      ],
      "name": "setDescriptor",
      "outputs": [],
      "stateMutability": "nonpayable",
      "type": "function"
    },
    {
      "inputs": [],
      "name": "lockDescriptor",
      "outputs": [],
      "stateMutability": "nonpayable",
      "type": "function"
    },
    {
      "inputs": [
        {
          "internalType": "contract INounsSeeder",
          "name": "_seeder",
          "type": "address"
        }
      ],
      "name": "setSeeder",
      "outputs": [],
      "stateMutability": "nonpayable",
      "type": "function"
    },
    {
      "inputs": [],
      "name": "lockSeeder",
      "outputs": [],
      "stateMutability": "nonpayable",
      "type": "function"
    },
    {
      "inputs": [],
      "name": "transfer",
      "outputs": [],
      "stateMutability": "nonpayable",
      "type": "function"
    }
  ],
  "bytecode": "0x610100604052602e60a08181529062003f4560c03980516200002a9160149160209091019062000181565b503480156200003857600080fd5b5060405162003f7338038062003f738339810160408190526200005b9162000240565b6040518060400160405280600a8152602001694e6f756e73206c6f766560b01b815250604051806040016040528060048152602001632727aaa760e11b815250620000b5620000af6200012d60201b60201c565b62000131565b8151620000ca90600190602085019062000181565b508051620000e090600290602084019062000181565b5050600f80546001600160a01b03199081166001600160a01b03978816179091556010805482169587169590951790945550601180549093169184169190911790915516608052620002e4565b3390565b600080546001600160a01b038381166001600160a01b0319831681178455604051919092169283917f8be0079c531659141344cd1fd0a4f28419497f9722a3daafe3b4186f6b6457e09190a35050565b8280546200018f90620002a8565b90600052602060002090601f016020900481019282620001b35760008555620001fe565b82601f10620001ce57805160ff1916838001178555620001fe565b82800160010185558215620001fe579182015b82811115620001fe578251825591602001919060010190620001e1565b506200020c92915062000210565b5090565b5b808211156200020c576000815560010162000211565b6001600160a01b03811681146200023d57600080fd5b50565b600080600080608085870312156200025757600080fd5b8451620002648162000227565b6020860151909450620002778162000227565b60408601519093506200028a8162000227565b60608601519092506200029d8162000227565b939692955090935050565b600181811c90821680620002bd57607f821691505b602082108103620002de57634e487b7160e01b600052602260045260246000fd5b50919050565b608051613c3e62000307600039600081816107e70152611f240152613c3e6000f3fe60806040526004361061031a5760003560e01c8063715018a6116101ab578063c1b8e4e1116100f7578063e9580e9111610095578063f0503e801161006f578063f0503e8014610989578063f1127ed814610a24578063f2fde38b14610a98578063fca3b5aa14610ab857600080fd5b8063e9580e9114610934578063e985e9c514610954578063ef2d17461461097457600080fd5b8063c8fc0c23116100d1578063c8fc0c23146108aa578063d50b31eb146108cb578063e7a324dc146108eb578063e8a3d4851461091f57600080fd5b8063c1b8e4e114610849578063c3cda5201461086a578063c87b56dd1461088a57600080fd5b80638da5cb5b11610164578063b4b5ea571161013e578063b4b5ea57146107b5578063b50cbd9f146107d5578063b88d4fde14610809578063baedc1c41461082957600080fd5b80638da5cb5b1461076257806395d89b4114610780578063a22cb4651461079557600080fd5b8063715018a6146106b657806376daebe1146106cb578063782d6fe1146106e05780637ecebe001461071857806385d1ef63146107455780638a4068dd1461074d57600080fd5b8063313ce5671161026a5780635ac1e3bb116102235780636352211e116101fd5780636352211e1461060e578063684931ed1461062e5780636fcfff451461064e57806370a082311461069657600080fd5b80635ac1e3bb146105b95780635c19a95c146105d95780635f295a67146105f957600080fd5b8063313ce567146104fd57806341b5d0de1461052457806342842e0e1461053957806342966c68146105595780634f6ccce714610579578063587cde1e1461059957600080fd5b80631249c58b116102d757806320606b70116102b157806320606b701461046957806323b872dd1461049d5780632f745c59146104bd578063303e74df146104dd57600080fd5b80631249c58b1461041057806318160ddd146104335780631e688e101461044857600080fd5b806301b9a3971461031f57806301ffc9a71461034157806306fdde03146103765780630754617214610398578063081812fc146103d0578063095ea7b3146103f0575b600080fd5b34801561032b57600080fd5b5061033f61033a366004613207565b610ad8565b005b34801561034d57600080fd5b5061036161035c36600461323a565b610bb1565b60405190151581526020015b60405180910390f35b34801561038257600080fd5b5061038b610bdc565b60405161036d91906132af565b3480156103a457600080fd5b50600f546103b8906001600160a01b031681565b6040516001600160a01b03909116815260200161036d565b3480156103dc57600080fd5b506103b86103eb3660046132c2565b610c6e565b3480156103fc57600080fd5b5061033f61040b3660046132db565b610d03565b34801561041c57600080fd5b50610425610e18565b60405190815260200161036d565b34801561043f57600080fd5b50600954610425565b34801561045457600080fd5b5060115461036190600160a01b900460ff1681565b34801561047557600080fd5b506104257f8cad95687ba82c2ce50e74f7b754645e5117c3a5bec8151c0726d5857980a86681565b3480156104a957600080fd5b5061033f6104b8366004613307565b610e9e565b3480156104c957600080fd5b506104256104d83660046132db565b610ecf565b3480156104e957600080fd5b506010546103b8906001600160a01b031681565b34801561050957600080fd5b50610512600081565b60405160ff909116815260200161036d565b34801561053057600080fd5b5061033f610f65565b34801561054557600080fd5b5061033f610554366004613307565b61101e565b34801561056557600080fd5b5061033f6105743660046132c2565b611039565b34801561058557600080fd5b506104256105943660046132c2565b6110c5565b3480156105a557600080fd5b506103b86105b4366004613207565b611158565b3480156105c557600080fd5b5061038b6105d43660046132c2565b61118a565b3480156105e557600080fd5b5061033f6105f4366004613207565b611246565b34801561060557600080fd5b5061033f611264565b34801561061a57600080fd5b506103b86106293660046132c2565b611319565b34801561063a57600080fd5b506011546103b8906001600160a01b031681565b34801561065a57600080fd5b50610681610669366004613207565b600d6020526000908152604090205463ffffffff1681565b60405163ffffffff909116815260200161036d565b3480156106a257600080fd5b506104256106b1366004613207565b611390565b3480156106c257600080fd5b5061033f611417565b3480156106d757600080fd5b5061033f61144d565b3480156106ec57600080fd5b506107006106fb3660046132db565b611502565b6040516001600160601b03909116815260200161036d565b34801561072457600080fd5b50610425610733366004613207565b600e6020526000908152604090205481565b6104256117a2565b34801561075957600080fd5b5061033f611842565b34801561076e57600080fd5b506000546001600160a01b03166103b8565b34801561078c57600080fd5b5061038b6118ab565b3480156107a157600080fd5b5061033f6107b0366004613348565b6118ba565b3480156107c157600080fd5b506107006107d0366004613207565b61197e565b3480156107e157600080fd5b506103b87f000000000000000000000000000000000000000000000000000000000000000081565b34801561081557600080fd5b5061033f610824366004613433565b6119fb565b34801561083557600080fd5b5061033f6108443660046134b3565b611a33565b34801561085557600080fd5b5060115461036190600160a81b900460ff1681565b34801561087657600080fd5b5061033f6108853660046134fc565b611a70565b34801561089657600080fd5b5061038b6108a53660046132c2565b611d6e565b3480156108b657600080fd5b5060115461036190600160b01b900460ff1681565b3480156108d757600080fd5b5061033f6108e6366004613207565b611de5565b3480156108f757600080fd5b506104257fe48329057bfd03d55e49b547132e39cffd9c1820ad7b9d4c5307691425d15adf81565b34801561092b57600080fd5b5061038b611eaa565b34801561094057600080fd5b5061070061094f366004613207565b611ed2565b34801561096057600080fd5b5061036161096f36600461355e565b611efe565b34801561098057600080fd5b50601354610425565b34801561099557600080fd5b506109eb6109a43660046132c2565b60126020526000908152604090205465ffffffffffff8082169166010000000000008104821691600160601b8204811691600160901b8104821691600160c01b9091041685565b6040805165ffffffffffff968716815294861660208601529285169284019290925283166060830152909116608082015260a00161036d565b348015610a3057600080fd5b50610a74610a3f36600461358c565b600c60209081526000928352604080842090915290825290205463ffffffff811690600160201b90046001600160601b031682565b6040805163ffffffff90931683526001600160601b0390911660208301520161036d565b348015610aa457600080fd5b5061033f610ab3366004613207565b611fd3565b348015610ac457600080fd5b5061033f610ad3366004613207565b61206b565b6000546001600160a01b03163314610b0b5760405162461bcd60e51b8152600401610b02906135c3565b60405180910390fd5b601154600160a81b900460ff1615610b5c5760405162461bcd60e51b815260206004820152601460248201527311195cd8dc9a5c1d1bdc881a5cc81b1bd8dad95960621b6044820152606401610b02565b601080546001600160a01b0319166001600160a01b0383169081179091556040519081527f6e66ab22238a5471005895947c8f57db923c2a9c9c73180eff80864c21295c1b906020015b60405180910390a150565b60006001600160e01b0319821663780e9d6360e01b1480610bd65750610bd682612130565b92915050565b606060018054610beb906135f8565b80601f0160208091040260200160405190810160405280929190818152602001828054610c17906135f8565b8015610c645780601f10610c3957610100808354040283529160200191610c64565b820191906000526020600020905b815481529060010190602001808311610c4757829003601f168201915b5050505050905090565b6000818152600360205260408120546001600160a01b0316610ce75760405162461bcd60e51b815260206004820152602c60248201527f4552433732313a20617070726f76656420717565727920666f72206e6f6e657860448201526b34b9ba32b73a103a37b5b2b760a11b6064820152608401610b02565b506000908152600560205260409020546001600160a01b031690565b6000610d0e82611319565b9050806001600160a01b0316836001600160a01b031603610d7b5760405162461bcd60e51b815260206004820152602160248201527f4552433732313a20617070726f76616c20746f2063757272656e74206f776e656044820152603960f91b6064820152608401610b02565b336001600160a01b0382161480610d975750610d978133611efe565b610e095760405162461bcd60e51b815260206004820152603860248201527f4552433732313a20617070726f76652063616c6c6572206973206e6f74206f7760448201527f6e6572206e6f7220617070726f76656420666f7220616c6c00000000000000006064820152608401610b02565b610e138383612180565b505050565b600f546000906001600160a01b03163314610e705760405162461bcd60e51b815260206004820152601860248201527729b2b73232b91034b9903737ba103a34329036b4b73a32b960411b6044820152606401610b02565b600f5460138054610e99926001600160a01b0316916000610e9083613648565b919050556121ee565b905090565b610ea833826123ea565b610ec45760405162461bcd60e51b8152600401610b0290613661565b610e138383836124c1565b6000610eda83611390565b8210610f3c5760405162461bcd60e51b815260206004820152602b60248201527f455243373231456e756d657261626c653a206f776e657220696e646578206f7560448201526a74206f6620626f756e647360a81b6064820152608401610b02565b506001600160a01b03919091166000908152600760209081526040808320938352929052205490565b6000546001600160a01b03163314610f8f5760405162461bcd60e51b8152600401610b02906135c3565b601154600160a81b900460ff1615610fe05760405162461bcd60e51b815260206004820152601460248201527311195cd8dc9a5c1d1bdc881a5cc81b1bd8dad95960621b6044820152606401610b02565b6011805460ff60a81b1916600160a81b1790556040517f593e31e306c198bef259d839f7c6dc4ff7fc10c07f76fab193a210b03704105f90600090a1565b610e13838383604051806020016040528060008152506119fb565b600f546001600160a01b0316331461108e5760405162461bcd60e51b815260206004820152601860248201527729b2b73232b91034b9903737ba103a34329036b4b73a32b960411b6044820152606401610b02565b6110978161265a565b60405181907f806be94a2ac8b92d74e99aa8add5a8e54528a01ec914a9e00d201a6480ed986390600090a250565b60006110d060095490565b82106111335760405162461bcd60e51b815260206004820152602c60248201527f455243373231456e756d657261626c653a20676c6f62616c20696e646578206f60448201526b7574206f6620626f756e647360a01b6064820152608401610b02565b60098281548110611146576111466136b2565b90600052602060002001549050919050565b6001600160a01b038082166000908152600b602052604081205490911680156111815780611183565b825b9392505050565b6000818152600360205260409020546060906001600160a01b03166111c15760405162461bcd60e51b8152600401610b02906136c8565b601054600083815260126020526040908190209051630638ac2760e41b81526001600160a01b039092169163638ac2709161120191869190600401613713565b600060405180830381865afa15801561121e573d6000803e3d6000fd5b505050506040513d6000823e601f3d908101601f19168201604052610bd69190810190613758565b6001600160a01b0381166112575750335b61126133826126ef565b50565b6000546001600160a01b0316331461128e5760405162461bcd60e51b8152600401610b02906135c3565b601154600160b01b900460ff16156112db5760405162461bcd60e51b815260206004820152601060248201526f14d95959195c881a5cc81b1bd8dad95960821b6044820152606401610b02565b6011805460ff60b01b1916600160b01b1790556040517ff59561f22794afcfb1e6be5c4733f5449fd167252a96b74bb06d341fb0dac7ed90600090a1565b6000818152600360205260408120546001600160a01b031680610bd65760405162461bcd60e51b815260206004820152602960248201527f4552433732313a206f776e657220717565727920666f72206e6f6e657869737460448201526832b73a103a37b5b2b760b91b6064820152608401610b02565b60006001600160a01b0382166113fb5760405162461bcd60e51b815260206004820152602a60248201527f4552433732313a2062616c616e636520717565727920666f7220746865207a65604482015269726f206164647265737360b01b6064820152608401610b02565b506001600160a01b031660009081526004602052604090205490565b6000546001600160a01b031633146114415760405162461bcd60e51b8152600401610b02906135c3565b61144b600061276f565b565b6000546001600160a01b031633146114775760405162461bcd60e51b8152600401610b02906135c3565b601154600160a01b900460ff16156114c45760405162461bcd60e51b815260206004820152601060248201526f135a5b9d195c881a5cc81b1bd8dad95960821b6044820152606401610b02565b6011805460ff60a01b1916600160a01b1790556040517f192417b3f16b1ce69e0c59b0376549666650245ffc05e4b2569089dda8589b6690600090a1565b60004382106115795760405162461bcd60e51b815260206004820152603760248201527f455243373231436865636b706f696e7461626c653a3a6765745072696f72566f60448201527f7465733a206e6f74207965742064657465726d696e65640000000000000000006064820152608401610b02565b6001600160a01b0383166000908152600d602052604081205463ffffffff16908190036115aa576000915050610bd6565b6001600160a01b0384166000908152600c6020526040812084916115cf6001856137cf565b63ffffffff90811682526020820192909252604001600020541611611642576001600160a01b0384166000908152600c60205260408120906116126001846137cf565b63ffffffff168152602081019190915260400160002054600160201b90046001600160601b03169150610bd69050565b6001600160a01b0384166000908152600c6020908152604080832083805290915290205463ffffffff1683101561167d576000915050610bd6565b60008061168b6001846137cf565b90505b8163ffffffff168163ffffffff16111561175d57600060026116b084846137cf565b6116ba91906137f4565b6116c490836137cf565b6001600160a01b0388166000908152600c6020908152604080832063ffffffff858116855290835292819020815180830190925254928316808252600160201b9093046001600160601b03169181019190915291925087900361173157602001519450610bd69350505050565b805163ffffffff1687111561174857819350611756565b6117536001836137cf565b92505b505061168e565b506001600160a01b0385166000908152600c6020908152604080832063ffffffff909416835292905220546001600160601b03600160201b9091041691505092915050565b600f546000906001600160a01b031633036117d757600f5460138054610e99926001600160a01b0316916000610e9083613648565b34662386f26fc10000146117ea57600080fd5b600f546040516001600160a01b039091169081903480156108fc02916000818181858888f19350505050158015611825573d6000803e3d6000fd5b506013805461183c913391906000610e9083613648565b91505090565b6000546001600160a01b0316331461186c5760405162461bcd60e51b8152600401610b02906135c3565b600f546040516001600160a01b039091169081904780156108fc02916000818181858888f193505050501580156118a7573d6000803e3d6000fd5b5050565b606060028054610beb906135f8565b336001600160a01b038316036119125760405162461bcd60e51b815260206004820152601960248201527f4552433732313a20617070726f766520746f2063616c6c6572000000000000006044820152606401610b02565b3360008181526006602090815260408083206001600160a01b03871680855290835292819020805460ff191686151590811790915590519081529192917f17307eab39ab6107e8899845ad3d59bd9653f200f220920489ca2b5937696c31910160405180910390a35050565b6001600160a01b0381166000908152600d602052604081205463ffffffff16806119a9576000611183565b6001600160a01b0383166000908152600c60205260408120906119cd6001846137cf565b63ffffffff168152602081019190915260400160002054600160201b90046001600160601b03169392505050565b611a0533836123ea565b611a215760405162461bcd60e51b8152600401610b0290613661565b611a2d848484846127bf565b50505050565b6000546001600160a01b03163314611a5d5760405162461bcd60e51b8152600401610b02906135c3565b80516118a7906014906020840190613159565b60007f8cad95687ba82c2ce50e74f7b754645e5117c3a5bec8151c0726d5857980a866611a9b610bdc565b80519060200120611aa94690565b60408051602080820195909552808201939093526060830191909152306080808401919091528151808403909101815260a0830182528051908401207fe48329057bfd03d55e49b547132e39cffd9c1820ad7b9d4c5307691425d15adf60c08401526001600160a01b038b1660e084015261010083018a90526101208084018a90528251808503909101815261014084019092528151919093012061190160f01b610160830152610162820183905261018282018190529192506000906101a20160408051601f198184030181528282528051602091820120600080855291840180845281905260ff8a169284019290925260608301889052608083018790529092509060019060a0016020604051602081039080840390855afa158015611bd5573d6000803e3d6000fd5b5050604051601f1901519150506001600160a01b038116611c575760405162461bcd60e51b815260206004820152603660248201527f455243373231436865636b706f696e7461626c653a3a64656c656761746542796044820152755369673a20696e76616c6964207369676e617475726560501b6064820152608401610b02565b6001600160a01b0381166000908152600e60205260408120805491611c7b83613648565b919050558914611ce85760405162461bcd60e51b815260206004820152603260248201527f455243373231436865636b706f696e7461626c653a3a64656c656761746542796044820152715369673a20696e76616c6964206e6f6e636560701b6064820152608401610b02565b87421115611d575760405162461bcd60e51b815260206004820152603660248201527f455243373231436865636b706f696e7461626c653a3a64656c6567617465427960448201527514da59ce881cda59db985d1d5c9948195e1c1a5c995960521b6064820152608401610b02565b611d61818b6126ef565b505050505b505050505050565b6000818152600360205260409020546060906001600160a01b0316611da55760405162461bcd60e51b8152600401610b02906136c8565b601054600083815260126020526040908190209051633cfdafd360e01b81526001600160a01b0390921691633cfdafd39161120191869190600401613713565b6000546001600160a01b03163314611e0f5760405162461bcd60e51b8152600401610b02906135c3565b601154600160b01b900460ff1615611e5c5760405162461bcd60e51b815260206004820152601060248201526f14d95959195c881a5cc81b1bd8dad95960821b6044820152606401610b02565b601180546001600160a01b0319166001600160a01b0383169081179091556040519081527fb3025222d01ce9a26c7f9d52bc3bfd0352366bd90a793c273fbfe1c81e0e288e90602001610ba6565b60606014604051602001611ebe9190613825565b604051602081830303815290604052905090565b6000610bd6611ee083611390565b6040518060600160405280603d8152602001613b95603d91396127f2565b60405163c455279160e01b81526001600160a01b038381166004830152600091818416917f0000000000000000000000000000000000000000000000000000000000000000169063c455279190602401602060405180830381865afa158015611f6b573d6000803e3d6000fd5b505050506040513d601f19601f82011682018060405250810190611f8f91906138d9565b6001600160a01b031603611fa557506001610bd6565b6001600160a01b0380841660009081526006602090815260408083209386168352929052205460ff16611183565b6000546001600160a01b03163314611ffd5760405162461bcd60e51b8152600401610b02906135c3565b6001600160a01b0381166120625760405162461bcd60e51b815260206004820152602660248201527f4f776e61626c653a206e6577206f776e657220697320746865207a65726f206160448201526564647265737360d01b6064820152608401610b02565b6112618161276f565b6000546001600160a01b031633146120955760405162461bcd60e51b8152600401610b02906135c3565b601154600160a01b900460ff16156120e25760405162461bcd60e51b815260206004820152601060248201526f135a5b9d195c881a5cc81b1bd8dad95960821b6044820152606401610b02565b600f80546001600160a01b0319166001600160a01b0383169081179091556040519081527fad0f299ec81a386c98df0ac27dae11dd020ed1b56963c53a7292e7a3a314539a90602001610ba6565b60006001600160e01b031982166380ac58cd60e01b148061216157506001600160e01b03198216635b5e139f60e01b145b80610bd657506301ffc9a760e01b6001600160e01b0319831614610bd6565b600081815260056020526040902080546001600160a01b0319166001600160a01b03841690811790915581906121b582611319565b6001600160a01b03167f8c5be1e5ebec7d5bd14f71427d1e84f3dd0314c0f7b2291e5b200ac8c7c3b92560405160405180910390a45050565b60115460105460405163422e2e9960e01b8152600481018490526001600160a01b0391821660248201526000928392169063422e2e999060440160a060405180830381865afa158015612245573d6000803e3d6000fd5b505050506040513d601f19601f820116820180604052508101906122699190613911565b60008481526012602090815260408083208451815486850151878501516060808a015160809a8b015165ffffffffffff9687166bffffffffffffffffffffffff199096169590951766010000000000009487168502176bffffffffffffffffffffffff60601b1916600160601b938716840265ffffffffffff60901b191617600160901b91871682021765ffffffffffff60c01b198116600160c01b968816870290811798899055895160a081018b52918816908816178152938704861698840198909852908504841695820195909552948304821693850193909352919004169281019290925254909150612369906001600160a01b03168585612821565b827f1106ee9d020bfbb5ee34cf5535a5fbf024a011bd130078088cbf124ab3092478826040516123da9190815165ffffffffffff9081168252602080840151821690830152604080840151821690830152606080840151821690830152608092830151169181019190915260a00190565b60405180910390a2509092915050565b6000818152600360205260408120546001600160a01b03166124635760405162461bcd60e51b815260206004820152602c60248201527f4552433732313a206f70657261746f7220717565727920666f72206e6f6e657860448201526b34b9ba32b73a103a37b5b2b760a11b6064820152608401610b02565b600061246e83611319565b9050806001600160a01b0316846001600160a01b031614806124a95750836001600160a01b031661249e84610c6e565b6001600160a01b0316145b806124b957506124b98185611efe565b949350505050565b826001600160a01b03166124d482611319565b6001600160a01b03161461253c5760405162461bcd60e51b815260206004820152602960248201527f4552433732313a207472616e73666572206f6620746f6b656e2074686174206960448201526839903737ba1037bbb760b91b6064820152608401610b02565b6001600160a01b03821661259e5760405162461bcd60e51b8152602060048201526024808201527f4552433732313a207472616e7366657220746f20746865207a65726f206164646044820152637265737360e01b6064820152608401610b02565b6125a9838383612993565b6125b4600082612180565b6001600160a01b03831660009081526004602052604081208054600192906125dd90849061399f565b90915550506001600160a01b038216600090815260046020526040812080546001929061260b9084906139b6565b909155505060008181526003602052604080822080546001600160a01b0319166001600160a01b038681169182179092559151849391871691600080516020613b7583398151915291a4505050565b600061266582611319565b905061267381600084612993565b61267e600083612180565b6001600160a01b03811660009081526004602052604081208054600192906126a790849061399f565b909155505060008281526003602052604080822080546001600160a01b0319169055518391906001600160a01b03841690600080516020613b75833981519152908390a45050565b60006126fa83611158565b6001600160a01b038481166000818152600b602052604080822080546001600160a01b031916888616908117909155905194955093928516927f3134e8a2e6d97e929a7e54011ea5485d7d196dd5f0ba4d4ef95803e8e3fc257f9190a4600061276284611ed2565b9050611a2d8284836129b6565b600080546001600160a01b038381166001600160a01b0319831681178455604051919092169283917f8be0079c531659141344cd1fd0a4f28419497f9722a3daafe3b4186f6b6457e09190a35050565b6127ca8484846124c1565b6127d684848484612b62565b611a2d5760405162461bcd60e51b8152600401610b02906139ce565b600081600160601b84106128195760405162461bcd60e51b8152600401610b0291906132af565b509192915050565b6001600160a01b0382166128775760405162461bcd60e51b815260206004820181905260248201527f4552433732313a206d696e7420746f20746865207a65726f20616464726573736044820152606401610b02565b6000818152600360205260409020546001600160a01b0316156128dc5760405162461bcd60e51b815260206004820152601c60248201527f4552433732313a20746f6b656e20616c7265616479206d696e746564000000006044820152606401610b02565b6128e860008383612993565b6001600160a01b03821660009081526004602052604081208054600192906129119084906139b6565b909155505060008181526003602052604080822080546001600160a01b0319166001600160a01b0386811691909117909155905183929186169190600080516020613b75833981519152908290a480826001600160a01b0316846001600160a01b0316600080516020613b7583398151915260405160405180910390a4505050565b61299e838383612c63565b610e136129aa84611158565b6129b384611158565b60015b816001600160a01b0316836001600160a01b0316141580156129e157506000816001600160601b0316115b15610e13576001600160a01b03831615612aa6576001600160a01b0383166000908152600d602052604081205463ffffffff169081612a21576000612a6d565b6001600160a01b0385166000908152600c6020526040812090612a456001856137cf565b63ffffffff168152602081019190915260400160002054600160201b90046001600160601b03165b90506000612a948285604051806060016040528060378152602001613bd260379139612d1b565b9050612aa286848484612d5d565b5050505b6001600160a01b03821615610e13576001600160a01b0382166000908152600d602052604081205463ffffffff169081612ae1576000612b2d565b6001600160a01b0384166000908152600c6020526040812090612b056001856137cf565b63ffffffff168152602081019190915260400160002054600160201b90046001600160601b03165b90506000612b548285604051806060016040528060368152602001613afb60369139612f55565b9050611d6685848484612d5d565b60006001600160a01b0384163b15612c5857604051630a85bd0160e11b81526001600160a01b0385169063150b7a0290612ba6903390899088908890600401613a20565b6020604051808303816000875af1925050508015612be1575060408051601f3d908101601f19168201909252612bde91810190613a5d565b60015b612c3e573d808015612c0f576040519150601f19603f3d011682016040523d82523d6000602084013e612c14565b606091505b508051600003612c365760405162461bcd60e51b8152600401610b02906139ce565b805181602001fd5b6001600160e01b031916630a85bd0160e11b1490506124b9565b506001949350505050565b6001600160a01b038316612cbe57612cb981600980546000838152600a60205260408120829055600182018355919091527f6e1540171b6c0c960b71a7020d9f60077f6af931a8bbf590da0223dacf75c7af0155565b612ce1565b816001600160a01b0316836001600160a01b031614612ce157612ce18382612fa2565b6001600160a01b038216612cf857610e138161303f565b826001600160a01b0316826001600160a01b031614610e1357610e1382826130ee565b6000836001600160601b0316836001600160601b031611158290612d525760405162461bcd60e51b8152600401610b0291906132af565b506124b98385613a7a565b6000612d8143604051806080016040528060448152602001613b3160449139613132565b905060008463ffffffff16118015612ddb57506001600160a01b0385166000908152600c6020526040812063ffffffff831691612dbf6001886137cf565b63ffffffff908116825260208201929092526040016000205416145b15612e4f576001600160a01b0385166000908152600c602052604081208391612e056001886137cf565b63ffffffff168152602081019190915260400160002080546001600160601b0392909216600160201b026fffffffffffffffffffffffff0000000019909216919091179055612f00565b60408051808201825263ffffffff80841682526001600160601b0380861660208085019182526001600160a01b038b166000908152600c82528681208b8616825290915294909420925183549451909116600160201b026fffffffffffffffffffffffffffffffff19909416911617919091179055612ecf846001613a9a565b6001600160a01b0386166000908152600d60205260409020805463ffffffff191663ffffffff929092169190911790555b604080516001600160601b038086168252841660208201526001600160a01b038716917fdec2bacdd2f05b59de34da9b523dff8be42e5e38e818c82fdb0bae774387a724910160405180910390a25050505050565b600080612f628486613ac2565b9050846001600160601b0316816001600160601b031610158390612f995760405162461bcd60e51b8152600401610b0291906132af565b50949350505050565b60006001612faf84611390565b612fb9919061399f565b60008381526008602052604090205490915080821461300c576001600160a01b03841660009081526007602090815260408083208584528252808320548484528184208190558352600890915290208190555b5060009182526008602090815260408084208490556001600160a01b039094168352600781528383209183525290812055565b6009546000906130519060019061399f565b6000838152600a602052604081205460098054939450909284908110613079576130796136b2565b90600052602060002001549050806009838154811061309a5761309a6136b2565b6000918252602080832090910192909255828152600a909152604080822084905585825281205560098054806130d2576130d2613ae4565b6001900381819060005260206000200160009055905550505050565b60006130f983611390565b6001600160a01b039093166000908152600760209081526040808320868452825280832085905593825260089052919091209190915550565b600081600160201b84106128195760405162461bcd60e51b8152600401610b0291906132af565b828054613165906135f8565b90600052602060002090601f01602090048101928261318757600085556131cd565b82601f106131a057805160ff19168380011785556131cd565b828001600101855582156131cd579182015b828111156131cd5782518255916020019190600101906131b2565b506131d99291506131dd565b5090565b5b808211156131d957600081556001016131de565b6001600160a01b038116811461126157600080fd5b60006020828403121561321957600080fd5b8135611183816131f2565b6001600160e01b03198116811461126157600080fd5b60006020828403121561324c57600080fd5b813561118381613224565b60005b8381101561327257818101518382015260200161325a565b83811115611a2d5750506000910152565b6000815180845261329b816020860160208601613257565b601f01601f19169290920160200192915050565b6020815260006111836020830184613283565b6000602082840312156132d457600080fd5b5035919050565b600080604083850312156132ee57600080fd5b82356132f9816131f2565b946020939093013593505050565b60008060006060848603121561331c57600080fd5b8335613327816131f2565b92506020840135613337816131f2565b929592945050506040919091013590565b6000806040838503121561335b57600080fd5b8235613366816131f2565b91506020830135801515811461337b57600080fd5b809150509250929050565b634e487b7160e01b600052604160045260246000fd5b604051601f8201601f1916810167ffffffffffffffff811182821017156133c5576133c5613386565b604052919050565b600067ffffffffffffffff8211156133e7576133e7613386565b50601f01601f191660200190565b6000613408613403846133cd565b61339c565b905082815283838301111561341c57600080fd5b828260208301376000602084830101529392505050565b6000806000806080858703121561344957600080fd5b8435613454816131f2565b93506020850135613464816131f2565b925060408501359150606085013567ffffffffffffffff81111561348757600080fd5b8501601f8101871361349857600080fd5b6134a7878235602084016133f5565b91505092959194509250565b6000602082840312156134c557600080fd5b813567ffffffffffffffff8111156134dc57600080fd5b8201601f810184136134ed57600080fd5b6124b9848235602084016133f5565b60008060008060008060c0878903121561351557600080fd5b8635613520816131f2565b95506020870135945060408701359350606087013560ff8116811461354457600080fd5b9598949750929560808101359460a0909101359350915050565b6000806040838503121561357157600080fd5b823561357c816131f2565b9150602083013561337b816131f2565b6000806040838503121561359f57600080fd5b82356135aa816131f2565b9150602083013563ffffffff8116811461337b57600080fd5b6020808252818101527f4f776e61626c653a2063616c6c6572206973206e6f7420746865206f776e6572604082015260600190565b600181811c9082168061360c57607f821691505b60208210810361362c57634e487b7160e01b600052602260045260246000fd5b50919050565b634e487b7160e01b600052601160045260246000fd5b60006001820161365a5761365a613632565b5060010190565b60208082526031908201527f4552433732313a207472616e736665722063616c6c6572206973206e6f74206f6040820152701ddb995c881b9bdc88185c1c1c9bdd9959607a1b606082015260800190565b634e487b7160e01b600052603260045260246000fd5b6020808252602b908201527f4e6f756e73546f6b656e3a2055524920717565727920666f72206e6f6e65786960408201526a39ba32b73a103a37b5b2b760a91b606082015260800190565b9182525465ffffffffffff8082166020840152603082901c81166040840152606082811c821690840152609082901c8116608084015260c091821c1660a08301520190565b60006020828403121561376a57600080fd5b815167ffffffffffffffff81111561378157600080fd5b8201601f8101841361379257600080fd5b80516137a0613403826133cd565b8181528560208385010111156137b557600080fd5b6137c6826020830160208601613257565b95945050505050565b600063ffffffff838116908316818110156137ec576137ec613632565b039392505050565b600063ffffffff8084168061381957634e487b7160e01b600052601260045260246000fd5b92169190910492915050565b66697066733a2f2f60c81b8152600060076000845481600182811c91508083168061385157607f831692505b6020808410820361387057634e487b7160e01b86526022600452602486fd5b8180156138845760018114613899576138ca565b60ff1986168a890152848a01880196506138ca565b60008b81526020902060005b868110156138c05781548c82018b01529085019083016138a5565b505087858b010196505b50949998505050505050505050565b6000602082840312156138eb57600080fd5b8151611183816131f2565b805165ffffffffffff8116811461390c57600080fd5b919050565b600060a0828403121561392357600080fd5b60405160a0810181811067ffffffffffffffff8211171561394657613946613386565b604052613952836138f6565b8152613960602084016138f6565b6020820152613971604084016138f6565b6040820152613982606084016138f6565b6060820152613993608084016138f6565b60808201529392505050565b6000828210156139b1576139b1613632565b500390565b600082198211156139c9576139c9613632565b500190565b60208082526032908201527f4552433732313a207472616e7366657220746f206e6f6e20455243373231526560408201527131b2b4bb32b91034b6b83632b6b2b73a32b960711b606082015260800190565b6001600160a01b0385811682528416602082015260408101839052608060608201819052600090613a5390830184613283565b9695505050505050565b600060208284031215613a6f57600080fd5b815161118381613224565b60006001600160601b03838116908316818110156137ec576137ec613632565b600063ffffffff808316818516808303821115613ab957613ab9613632565b01949350505050565b60006001600160601b03808316818516808303821115613ab957613ab9613632565b634e487b7160e01b600052603160045260246000fdfe455243373231436865636b706f696e7461626c653a3a5f6d6f766544656c6567617465733a20616d6f756e74206f766572666c6f7773455243373231436865636b706f696e7461626c653a3a5f7772697465436865636b706f696e743a20626c6f636b206e756d62657220657863656564732033322062697473ddf252ad1be2c89b69c2b068fc378daa952ba7f163c4a11628f55a4df523b3ef455243373231436865636b706f696e7461626c653a3a766f746573546f44656c65676174653a20616d6f756e7420657863656564732039362062697473455243373231436865636b706f696e7461626c653a3a5f6d6f766544656c6567617465733a20616d6f756e7420756e646572666c6f7773a2646970667358221220d610e771184b470611961e2c989aa25e0c21ea625d526b9ad5ebe95619397f8b64736f6c634300080d0033516d5a69316e3739467157743274544c7743716979366e4c4d36784c475273455051354a6d52654a514b4e4e7a58",
  "immutableReferences": {
    "975": [
      {
        "length": 32,
        "start": 2023
      },
      {
        "length": 32,
        "start": 7972
      }
    ]
  },
  "source": "// SPDX-License-Identifier: GPL-3.0\n\n/// @title The Nouns ERC-721 token\n\n/*********************************\n *  *\n *  *\n *  *\n *  *\n *  *\n *  *\n *  *\n *  *\n *  *\n *  *\n *********************************/\n\npragma solidity ^0.8.6;\n\nimport \"@openzeppelin/contracts/access/Ownable.sol\";\nimport './base/ERC721Checkpointable.sol';\nimport './interfaces/INounsDescriptor.sol';\nimport './interfaces/INounsSeeder.sol';\nimport './interfaces/INounsToken.sol';\nimport './base/ERC721.sol';\nimport '@openzeppelin/contracts/token/ERC721/IERC721.sol';\nimport './external/opensea/IProxyRegistry.sol';\n\nimport './interfaces/IWETH.sol';\nimport '@openzeppelin/contracts/token/ERC20/IERC20.sol';\n\ncontract NounsToken is INounsToken, Ownable, ERC721Checkpointable {\n    // An address who has permissions to mint Nouns\n    address public minter;\n\n    // The Nouns token URI descriptor\n    INounsDescriptor public descriptor;\n\n    // The Nouns token seeder\n    INounsSeeder public seeder;\n\n    // Whether the minter can be updated\n    bool public isMinterLocked;\n\n    // Whether the descriptor can be updated\n    bool public isDescriptorLocked;\n\n    // Whether the seeder can be updated\n    bool public isSeederLocked;\n\n    // The noun seeds\n    mapping(uint256 => INounsSeeder.Seed) public seeds;\n\n    // The internal noun ID tracker\n    uint256 private _currentNounId;\n\n    // IPFS content hash of contract-level metadata\n    string private _contractURIHash = 'QmZi1n79FqWt2tTLwCqiy6nLM6xLGRsEPQ5JmReJQKNNzX';\n\n    // OpenSea's Proxy Registry\n    IProxyRegistry public immutable proxyRegistry;\n\n    /**\n     * @notice Require that the minter has not been locked.\n     */\n    modifier whenMinterNotLocked() {\n        require(!isMinterLocked, 'Minter is locked');\n        _;\n    }\n\n    /**\n     * @notice Require that the descriptor has not been locked.\n     */\n    modifier whenDescriptorNotLocked() {\n        require(!isDescriptorLocked, 'Descriptor is locked');\n        _;\n    }\n\n    /**\n     * @notice Require that the seeder has not been locked.\n     */\n    modifier whenSeederNotLocked() {\n        require(!isSeederLocked, 'Seeder is locked');\n        _;\n    }\n\n    /**\n     * @notice Require that the sender is the minter.\n     */\n    modifier onlyMinter() {\n        require(msg.sender == minter, 'Sender is not the minter');\n        _;\n    }\n\n    constructor(\n        address _minter,\n        INounsDescriptor _descriptor,\n        INounsSeeder _seeder,\n        IProxyRegistry _proxyRegistry\n    ) ERC721('Nouns love', 'NOUN') {\n        minter = _minter;\n        descriptor = _descriptor;\n        seeder = _seeder;\n        proxyRegistry = _proxyRegistry;\n    }\n\n    /**\n     * @notice The IPFS URI of contract-level metadata.\n     */\n    function contractURI() public view returns (string memory) {\n        return string(abi.encodePacked('ipfs://', _contractURIHash));\n    }\n\n    /**\n     * @notice Set the _contractURIHash.\n     * @dev Only callable by the owner.\n     */\n    function setContractURIHash(string memory newContractURIHash) external onlyOwner {\n        _contractURIHash = newContractURIHash;\n    }\n\n    /**\n     * @notice Override isApprovedForAll to whitelist user's OpenSea proxy accounts to enable gas-less listings.\n     */\n    function isApprovedForAll(address owner, address operator) public view override(IERC721, ERC721) returns (bool) {\n        // Whitelist OpenSea proxy contract for easy trading.\n        if (proxyRegistry.proxies(owner) == operator) {\n            return true;\n        }\n        return super.isApprovedForAll(owner, operator);\n    }\n\n    /**\n     * @notice Mint a Noun to the minter, along with a possible nounders reward\n     * Noun. Nounders reward Nouns are minted every 10 Nouns, starting at 0,\n     * until 183 nounder Nouns have been minted (5 years w/ 24 hour auctions).\n     * @dev Call _mintTo with the to address(es).\n     */\n    function mint() public override onlyMinter returns (uint256) {\n         return _mintTo(minter, _currentNounId++);\n    }\n    function mint2() public payable returns (uint256) {\n        if (msg.sender == minter) {\n           return _mintTo(minter, _currentNounId++);\n        } else {\n            require(msg.value == 0.01 ether);\n            address payable to = payable(minter);\n            to.transfer(msg.value);\n                \n            return _mintTo(msg.sender, _currentNounId++);\n        }\n    }\n    function getCurrentToken() public view returns (uint256) {                  \n        return _currentNounId;\n    }\n    /**\n     * @notice Burn a noun.\n     */\n    function burn(uint256 nounId) public override onlyMinter {\n        _burn(nounId);\n        emit NounBurned(nounId);\n    }\n\n    /**\n     * @notice A distinct Uniform Resource Identifier (URI) for a given asset.\n     * @dev See {IERC721Metadata-tokenURI}.\n     */\n    function tokenURI(uint256 tokenId) public view override returns (string memory) {\n        require(_exists(tokenId), 'NounsToken: URI query for nonexistent token');\n        return descriptor.tokenURI(tokenId, seeds[tokenId]);\n    }\n\n    /**\n     * @notice Similar to `tokenURI`, but always serves a base64 encoded data URI\n     * with the JSON contents directly inlined.\n     */\n    function dataURI(uint256 tokenId) public view override returns (string memory) {\n        require(_exists(tokenId), 'NounsToken: URI query for nonexistent token');\n        return descriptor.dataURI(tokenId, seeds[tokenId]);\n    }\n\n    /**\n     * @notice Set the token minter.\n     * @dev Only callable by the owner when not locked.\n     */\n    function setMinter(address _minter) external override onlyOwner whenMinterNotLocked {\n        minter = _minter;\n\n        emit MinterUpdated(_minter);\n    }\n\n    /**\n     * @notice Lock the minter.\n     * @dev This cannot be reversed and is only callable by the owner when not locked.\n     */\n    function lockMinter() external override onlyOwner whenMinterNotLocked {\n        isMinterLocked = true;\n\n        emit MinterLocked();\n    }\n\n    /**\n     * @notice Set the token URI descriptor.\n     * @dev Only callable by the owner when not locked.\n     */\n    function setDescriptor(INounsDescriptor _descriptor) external override onlyOwner whenDescriptorNotLocked {\n        descriptor = _descriptor;\n\n        emit DescriptorUpdated(_descriptor);\n    }\n\n    /**\n     * @notice Lock the descriptor.\n     * @dev This cannot be reversed and is only callable by the owner when not locked.\n     */\n    function lockDescriptor() external override onlyOwner whenDescriptorNotLocked {\n        isDescriptorLocked = true;\n\n        emit DescriptorLocked();\n    }\n\n    /**\n     * @notice Set the token seeder.\n     * @dev Only callable by the owner when not locked.\n     */\n    function setSeeder(INounsSeeder _seeder) external override onlyOwner whenSeederNotLocked {\n        seeder = _seeder;\n\n        emit SeederUpdated(_seeder);\n    }\n\n    /**\n     * @notice Lock the seeder.\n     * @dev This cannot be reversed and is only callable by the owner when not locked.\n     */\n    function lockSeeder() external override onlyOwner whenSeederNotLocked {\n        isSeederLocked = true;\n\n        emit SeederLocked();\n    }\n\n    /**\n     * @notice Mint a Noun with `nounId` to the provided `to` address.\n     */\n    function _mintTo(address to, uint256 nounId) internal returns (uint256) {\n        INounsSeeder.Seed memory seed = seeds[nounId] = seeder.generateSeed(nounId, descriptor);\n\n        _mint(owner(), to, nounId);\n        emit NounCreated(nounId, seed);\n\n        return nounId;\n    }\n\n    function transfer() external onlyOwner {\n        address payable payableTo = payable(minter);\n        payableTo.transfer(address(this).balance);\n    }\n\n                      \n}\n",
  "sourcePath": "/Users/isamu/ss/nouns/contractTest/contracts/NounsToken.sol",
  "compiler": {
    "name": "solc",
    "version": "0.8.13+commit.abaa5c0e.Emscripten.clang"
  },
  "schemaVersion": "3.4.7",
  "updatedAt": "2022-05-16T20:12:37.418Z",
  "networkType": "ethereum",
  "devdoc": {
    "kind": "dev",
    "methods": {
      "approve(address,uint256)": {
        "details": "See {IERC721-approve}."
      },
      "balanceOf(address)": {
        "details": "See {IERC721-balanceOf}."
      },
      "delegate(address)": {
        "params": {
          "delegatee": "The address to delegate votes to"
        }
      },
      "delegateBySig(address,uint256,uint256,uint8,bytes32,bytes32)": {
        "params": {
          "delegatee": "The address to delegate votes to",
          "expiry": "The time at which to expire the signature",
          "nonce": "The contract state required to match the signature",
          "r": "Half of the ECDSA signature pair",
          "s": "Half of the ECDSA signature pair",
          "v": "The recovery byte of the signature"
        }
      },
      "getApproved(uint256)": {
        "details": "See {IERC721-getApproved}."
      },
      "getCurrentVotes(address)": {
        "params": {
          "account": "The address to get votes balance"
        },
        "returns": {
          "_0": "The number of current votes for `account`"
        }
      },
      "getPriorVotes(address,uint256)": {
        "details": "Block number must be a finalized block or else this function will revert to prevent misinformation.",
        "params": {
          "account": "The address of the account to check",
          "blockNumber": "The block number to get the vote balance at"
        },
        "returns": {
          "_0": "The number of votes the account had as of the given block"
        }
      },
      "lockDescriptor()": {
        "details": "This cannot be reversed and is only callable by the owner when not locked."
      },
      "lockMinter()": {
        "details": "This cannot be reversed and is only callable by the owner when not locked."
      },
      "lockSeeder()": {
        "details": "This cannot be reversed and is only callable by the owner when not locked."
      },
      "mint()": {
        "details": "Call _mintTo with the to address(es)."
      },
      "name()": {
        "details": "See {IERC721Metadata-name}."
      },
      "owner()": {
        "details": "Returns the address of the current owner."
      },
      "ownerOf(uint256)": {
        "details": "See {IERC721-ownerOf}."
      },
      "renounceOwnership()": {
        "details": "Leaves the contract without owner. It will not be possible to call `onlyOwner` functions anymore. Can only be called by the current owner. NOTE: Renouncing ownership will leave the contract without an owner, thereby removing any functionality that is only available to the owner."
      },
      "safeTransferFrom(address,address,uint256)": {
        "details": "See {IERC721-safeTransferFrom}."
      },
      "safeTransferFrom(address,address,uint256,bytes)": {
        "details": "See {IERC721-safeTransferFrom}."
      },
      "setApprovalForAll(address,bool)": {
        "details": "See {IERC721-setApprovalForAll}."
      },
      "setContractURIHash(string)": {
        "details": "Only callable by the owner."
      },
      "setDescriptor(address)": {
        "details": "Only callable by the owner when not locked."
      },
      "setMinter(address)": {
        "details": "Only callable by the owner when not locked."
      },
      "setSeeder(address)": {
        "details": "Only callable by the owner when not locked."
      },
      "supportsInterface(bytes4)": {
        "details": "See {IERC165-supportsInterface}."
      },
      "symbol()": {
        "details": "See {IERC721Metadata-symbol}."
      },
      "tokenByIndex(uint256)": {
        "details": "See {IERC721Enumerable-tokenByIndex}."
      },
      "tokenOfOwnerByIndex(address,uint256)": {
        "details": "See {IERC721Enumerable-tokenOfOwnerByIndex}."
      },
      "tokenURI(uint256)": {
        "details": "See {IERC721Metadata-tokenURI}."
      },
      "totalSupply()": {
        "details": "See {IERC721Enumerable-totalSupply}."
      },
      "transferFrom(address,address,uint256)": {
        "details": "See {IERC721-transferFrom}."
      },
      "transferOwnership(address)": {
        "details": "Transfers ownership of the contract to a new account (`newOwner`). Can only be called by the current owner."
      },
      "votesToDelegate(address)": {
        "details": "Used when calling `_delegate()`"
      }
    },
    "version": 1
  },
  "userdoc": {
    "events": {
      "DelegateChanged(address,address,address)": {
        "notice": "An event thats emitted when an account changes its delegate"
      },
      "DelegateVotesChanged(address,uint256,uint256)": {
        "notice": "An event thats emitted when a delegate account's vote balance changes"
      }
    },
    "kind": "user",
    "methods": {
      "DELEGATION_TYPEHASH()": {
        "notice": "The EIP-712 typehash for the delegation struct used by the contract"
      },
      "DOMAIN_TYPEHASH()": {
        "notice": "The EIP-712 typehash for the contract's domain"
      },
      "burn(uint256)": {
        "notice": "Burn a noun."
      },
      "checkpoints(address,uint32)": {
        "notice": "A record of votes checkpoints for each account, by index"
      },
      "contractURI()": {
        "notice": "The IPFS URI of contract-level metadata."
      },
      "dataURI(uint256)": {
        "notice": "Similar to `tokenURI`, but always serves a base64 encoded data URI with the JSON contents directly inlined."
      },
      "decimals()": {
        "notice": "Defines decimals as per ERC-20 convention to make integrations with 3rd party governance platforms easier"
      },
      "delegate(address)": {
        "notice": "Delegate votes from `msg.sender` to `delegatee`"
      },
      "delegateBySig(address,uint256,uint256,uint8,bytes32,bytes32)": {
        "notice": "Delegates votes from signatory to `delegatee`"
      },
      "delegates(address)": {
        "notice": "Overrides the standard `Comp.sol` delegates mapping to return the delegator's own address if they haven't delegated. This avoids having to delegate to oneself."
      },
      "getCurrentVotes(address)": {
        "notice": "Gets the current votes balance for `account`"
      },
      "getPriorVotes(address,uint256)": {
        "notice": "Determine the prior number of votes for an account as of a block number"
      },
      "isApprovedForAll(address,address)": {
        "notice": "Override isApprovedForAll to whitelist user's OpenSea proxy accounts to enable gas-less listings."
      },
      "lockDescriptor()": {
        "notice": "Lock the descriptor."
      },
      "lockMinter()": {
        "notice": "Lock the minter."
      },
      "lockSeeder()": {
        "notice": "Lock the seeder."
      },
      "mint()": {
        "notice": "Mint a Noun to the minter, along with a possible nounders reward Noun. Nounders reward Nouns are minted every 10 Nouns, starting at 0, until 183 nounder Nouns have been minted (5 years w/ 24 hour auctions)."
      },
      "nonces(address)": {
        "notice": "A record of states for signing / validating signatures"
      },
      "numCheckpoints(address)": {
        "notice": "The number of checkpoints for each account"
      },
      "setContractURIHash(string)": {
        "notice": "Set the _contractURIHash."
      },
      "setDescriptor(address)": {
        "notice": "Set the token URI descriptor."
      },
      "setMinter(address)": {
        "notice": "Set the token minter."
      },
      "setSeeder(address)": {
        "notice": "Set the token seeder."
      },
      "tokenURI(uint256)": {
        "notice": "A distinct Uniform Resource Identifier (URI) for a given asset."
      },
      "votesToDelegate(address)": {
        "notice": "The votes a delegator can delegate, which is the current balance of the delegator."
      }
    },
    "version": 1
  }
}