{
  "_format": "hh-sol-artifact-1",
  "contractName": "NounsToken",
  "sourceName": "contracts/NounsToken.sol",
  "abi": [
    {
      "inputs": [
        {
          "internalType": "address",
          "name": "_minter",
          "type": "address"
        },
        {
          "internalType": "contract INounsDescriptor",
          "name": "_descriptor",
          "type": "address"
        },
        {
          "internalType": "contract INounsSeeder",
          "name": "_seeder",
          "type": "address"
        },
        {
          "internalType": "address",
          "name": "_developper",
          "type": "address"
        },
        {
          "components": [
            {
              "internalType": "uint256",
              "name": "maxPrice",
              "type": "uint256"
            },
            {
              "internalType": "uint256",
              "name": "minPrice",
              "type": "uint256"
            },
            {
              "internalType": "uint256",
              "name": "priceDelta",
              "type": "uint256"
            },
            {
              "internalType": "uint256",
              "name": "timeDelta",
              "type": "uint256"
            },
            {
              "internalType": "uint256",
              "name": "expirationTime",
              "type": "uint256"
            }
          ],
          "internalType": "struct NounsToken.PriceSeed",
          "name": "_priceSeed",
          "type": "tuple"
        },
        {
          "internalType": "contract IProxyRegistry",
          "name": "_proxyRegistry",
          "type": "address"
        }
      ],
      "stateMutability": "nonpayable",
      "type": "constructor"
    },
    {
      "anonymous": false,
      "inputs": [
        {
          "indexed": true,
          "internalType": "address",
          "name": "owner",
          "type": "address"
        },
        {
          "indexed": true,
          "internalType": "address",
          "name": "approved",
          "type": "address"
        },
        {
          "indexed": true,
          "internalType": "uint256",
          "name": "tokenId",
          "type": "uint256"
        }
      ],
      "name": "Approval",
      "type": "event"
    },
    {
      "anonymous": false,
      "inputs": [
        {
          "indexed": true,
          "internalType": "address",
          "name": "owner",
          "type": "address"
        },
        {
          "indexed": true,
          "internalType": "address",
          "name": "operator",
          "type": "address"
        },
        {
          "indexed": false,
          "internalType": "bool",
          "name": "approved",
          "type": "bool"
        }
      ],
      "name": "ApprovalForAll",
      "type": "event"
    },
    {
      "anonymous": false,
      "inputs": [
        {
          "indexed": true,
          "internalType": "address",
          "name": "delegator",
          "type": "address"
        },
        {
          "indexed": true,
          "internalType": "address",
          "name": "fromDelegate",
          "type": "address"
        },
        {
          "indexed": true,
          "internalType": "address",
          "name": "toDelegate",
          "type": "address"
        }
      ],
      "name": "DelegateChanged",
      "type": "event"
    },
    {
      "anonymous": false,
      "inputs": [
        {
          "indexed": true,
          "internalType": "address",
          "name": "delegate",
          "type": "address"
        },
        {
          "indexed": false,
          "internalType": "uint256",
          "name": "previousBalance",
          "type": "uint256"
        },
        {
          "indexed": false,
          "internalType": "uint256",
          "name": "newBalance",
          "type": "uint256"
        }
      ],
      "name": "DelegateVotesChanged",
      "type": "event"
    },
    {
      "anonymous": false,
      "inputs": [
        {
          "indexed": false,
          "internalType": "uint256",
          "name": "mintTime",
          "type": "uint256"
        }
      ],
      "name": "MintTimeUpdated",
      "type": "event"
    },
    {
      "anonymous": false,
      "inputs": [],
      "name": "MinterLocked",
      "type": "event"
    },
    {
      "anonymous": false,
      "inputs": [
        {
          "indexed": false,
          "internalType": "address",
          "name": "minter",
          "type": "address"
        }
      ],
      "name": "MinterUpdated",
      "type": "event"
    },
    {
      "anonymous": false,
      "inputs": [
        {
          "indexed": true,
          "internalType": "uint256",
          "name": "tokenId",
          "type": "uint256"
        },
        {
          "indexed": false,
          "internalType": "address",
          "name": "newOwner",
          "type": "address"
        }
      ],
      "name": "NounBought",
      "type": "event"
    },
    {
      "anonymous": false,
      "inputs": [
        {
          "indexed": true,
          "internalType": "uint256",
          "name": "tokenId",
          "type": "uint256"
        }
      ],
      "name": "NounBurned",
      "type": "event"
    },
    {
      "anonymous": false,
      "inputs": [
        {
          "indexed": true,
          "internalType": "uint256",
          "name": "tokenId",
          "type": "uint256"
        },
        {
          "components": [
            {
              "internalType": "uint48",
              "name": "background",
              "type": "uint48"
            },
            {
              "internalType": "uint48",
              "name": "body",
              "type": "uint48"
            },
            {
              "internalType": "uint48",
              "name": "accessory",
              "type": "uint48"
            },
            {
              "internalType": "uint48",
              "name": "head",
              "type": "uint48"
            },
            {
              "internalType": "uint48",
              "name": "glasses",
              "type": "uint48"
            }
          ],
          "indexed": false,
          "internalType": "struct INounsSeeder.Seed",
          "name": "seed",
          "type": "tuple"
        }
      ],
      "name": "NounCreated",
      "type": "event"
    },
    {
      "anonymous": false,
      "inputs": [
        {
          "indexed": false,
          "internalType": "address",
          "name": "noundersDAO",
          "type": "address"
        }
      ],
      "name": "NoundersDAOUpdated",
      "type": "event"
    },
    {
      "anonymous": false,
      "inputs": [
        {
          "indexed": true,
          "internalType": "address",
          "name": "previousOwner",
          "type": "address"
        },
        {
          "indexed": true,
          "internalType": "address",
          "name": "newOwner",
          "type": "address"
        }
      ],
      "name": "OwnershipTransferred",
      "type": "event"
    },
    {
      "anonymous": false,
      "inputs": [
        {
          "indexed": true,
          "internalType": "address",
          "name": "from",
          "type": "address"
        },
        {
          "indexed": true,
          "internalType": "address",
          "name": "to",
          "type": "address"
        },
        {
          "indexed": true,
          "internalType": "uint256",
          "name": "tokenId",
          "type": "uint256"
        }
      ],
      "name": "Transfer",
      "type": "event"
    },
    {
      "inputs": [],
      "name": "DELEGATION_TYPEHASH",
      "outputs": [
        {
          "internalType": "bytes32",
          "name": "",
          "type": "bytes32"
        }
      ],
      "stateMutability": "view",
      "type": "function"
    },
    {
      "inputs": [],
      "name": "DOMAIN_TYPEHASH",
      "outputs": [
        {
          "internalType": "bytes32",
          "name": "",
          "type": "bytes32"
        }
      ],
      "stateMutability": "view",
      "type": "function"
    },
    {
      "inputs": [
        {
          "internalType": "address",
          "name": "to",
          "type": "address"
        },
        {
          "internalType": "uint256",
          "name": "tokenId",
          "type": "uint256"
        }
      ],
      "name": "approve",
      "outputs": [],
      "stateMutability": "nonpayable",
      "type": "function"
    },
    {
      "inputs": [
        {
          "internalType": "address",
          "name": "owner",
          "type": "address"
        }
      ],
      "name": "balanceOf",
      "outputs": [
        {
          "internalType": "uint256",
          "name": "",
          "type": "uint256"
        }
      ],
      "stateMutability": "view",
      "type": "function"
    },
    {
      "inputs": [
        {
          "internalType": "uint256",
          "name": "nounId",
          "type": "uint256"
        }
      ],
      "name": "burn",
      "outputs": [],
      "stateMutability": "nonpayable",
      "type": "function"
    },
    {
      "inputs": [],
      "name": "burnExpireToken",
      "outputs": [],
      "stateMutability": "nonpayable",
      "type": "function"
    },
    {
      "inputs": [
        {
          "internalType": "uint256",
          "name": "tokenId",
          "type": "uint256"
        }
      ],
      "name": "buy",
      "outputs": [
        {
          "internalType": "uint256",
          "name": "",
          "type": "uint256"
        }
      ],
      "stateMutability": "payable",
      "type": "function"
    },
    {
      "inputs": [
        {
          "internalType": "address",
          "name": "",
          "type": "address"
        },
        {
          "internalType": "uint32",
          "name": "",
          "type": "uint32"
        }
      ],
      "name": "checkpoints",
      "outputs": [
        {
          "internalType": "uint32",
          "name": "fromBlock",
          "type": "uint32"
        },
        {
          "internalType": "uint96",
          "name": "votes",
          "type": "uint96"
        }
      ],
      "stateMutability": "view",
      "type": "function"
    },
    {
      "inputs": [],
      "name": "committee",
      "outputs": [
        {
          "internalType": "address",
          "name": "",
          "type": "address"
        }
      ],
      "stateMutability": "view",
      "type": "function"
    },
    {
      "inputs": [
        {
          "internalType": "uint256",
          "name": "tokenId",
          "type": "uint256"
        }
      ],
      "name": "dataURI",
      "outputs": [
        {
          "internalType": "string",
          "name": "",
          "type": "string"
        }
      ],
      "stateMutability": "view",
      "type": "function"
    },
    {
      "inputs": [],
      "name": "decimals",
      "outputs": [
        {
          "internalType": "uint8",
          "name": "",
          "type": "uint8"
        }
      ],
      "stateMutability": "view",
      "type": "function"
    },
    {
      "inputs": [
        {
          "internalType": "address",
          "name": "delegatee",
          "type": "address"
        }
      ],
      "name": "delegate",
      "outputs": [],
      "stateMutability": "nonpayable",
      "type": "function"
    },
    {
      "inputs": [
        {
          "internalType": "address",
          "name": "delegatee",
          "type": "address"
        },
        {
          "internalType": "uint256",
          "name": "nonce",
          "type": "uint256"
        },
        {
          "internalType": "uint256",
          "name": "expiry",
          "type": "uint256"
        },
        {
          "internalType": "uint8",
          "name": "v",
          "type": "uint8"
        },
        {
          "internalType": "bytes32",
          "name": "r",
          "type": "bytes32"
        },
        {
          "internalType": "bytes32",
          "name": "s",
          "type": "bytes32"
        }
      ],
      "name": "delegateBySig",
      "outputs": [],
      "stateMutability": "nonpayable",
      "type": "function"
    },
    {
      "inputs": [
        {
          "internalType": "address",
          "name": "delegator",
          "type": "address"
        }
      ],
      "name": "delegates",
      "outputs": [
        {
          "internalType": "address",
          "name": "",
          "type": "address"
        }
      ],
      "stateMutability": "view",
      "type": "function"
    },
    {
      "inputs": [],
      "name": "descriptor",
      "outputs": [
        {
          "internalType": "contract INounsDescriptor",
          "name": "",
          "type": "address"
        }
      ],
      "stateMutability": "view",
      "type": "function"
    },
    {
      "inputs": [],
      "name": "developper",
      "outputs": [
        {
          "internalType": "address",
          "name": "",
          "type": "address"
        }
      ],
      "stateMutability": "view",
      "type": "function"
    },
    {
      "inputs": [
        {
          "internalType": "uint256",
          "name": "tokenId",
          "type": "uint256"
        }
      ],
      "name": "getApproved",
      "outputs": [
        {
          "internalType": "address",
          "name": "",
          "type": "address"
        }
      ],
      "stateMutability": "view",
      "type": "function"
    },
    {
      "inputs": [],
      "name": "getCurrentToken",
      "outputs": [
        {
          "internalType": "uint256",
          "name": "",
          "type": "uint256"
        }
      ],
      "stateMutability": "view",
      "type": "function"
    },
    {
      "inputs": [
        {
          "internalType": "address",
          "name": "account",
          "type": "address"
        }
      ],
      "name": "getCurrentVotes",
      "outputs": [
        {
          "internalType": "uint96",
          "name": "",
          "type": "uint96"
        }
      ],
      "stateMutability": "view",
      "type": "function"
    },
    {
      "inputs": [],
      "name": "getMintTime",
      "outputs": [
        {
          "internalType": "uint256",
          "name": "",
          "type": "uint256"
        }
      ],
      "stateMutability": "view",
      "type": "function"
    },
    {
      "inputs": [],
      "name": "getPriceData",
      "outputs": [
        {
          "components": [
            {
              "internalType": "uint256",
              "name": "maxPrice",
              "type": "uint256"
            },
            {
              "internalType": "uint256",
              "name": "minPrice",
              "type": "uint256"
            },
            {
              "internalType": "uint256",
              "name": "priceDelta",
              "type": "uint256"
            },
            {
              "internalType": "uint256",
              "name": "timeDelta",
              "type": "uint256"
            },
            {
              "internalType": "uint256",
              "name": "expirationTime",
              "type": "uint256"
            }
          ],
          "internalType": "struct NounsToken.PriceSeed",
          "name": "",
          "type": "tuple"
        }
      ],
      "stateMutability": "view",
      "type": "function"
    },
    {
      "inputs": [
        {
          "internalType": "address",
          "name": "account",
          "type": "address"
        },
        {
          "internalType": "uint256",
          "name": "blockNumber",
          "type": "uint256"
        }
      ],
      "name": "getPriorVotes",
      "outputs": [
        {
          "internalType": "uint96",
          "name": "",
          "type": "uint96"
        }
      ],
      "stateMutability": "view",
      "type": "function"
    },
    {
      "inputs": [
        {
          "internalType": "address",
          "name": "owner",
          "type": "address"
        },
        {
          "internalType": "address",
          "name": "operator",
          "type": "address"
        }
      ],
      "name": "isApprovedForAll",
      "outputs": [
        {
          "internalType": "bool",
          "name": "",
          "type": "bool"
        }
      ],
      "stateMutability": "view",
      "type": "function"
    },
    {
      "inputs": [],
      "name": "isMinterLocked",
      "outputs": [
        {
          "internalType": "bool",
          "name": "",
          "type": "bool"
        }
      ],
      "stateMutability": "view",
      "type": "function"
    },
    {
      "inputs": [],
      "name": "lockMinter",
      "outputs": [],
      "stateMutability": "nonpayable",
      "type": "function"
    },
    {
      "inputs": [],
      "name": "mint",
      "outputs": [
        {
          "internalType": "uint256",
          "name": "",
          "type": "uint256"
        }
      ],
      "stateMutability": "nonpayable",
      "type": "function"
    },
    {
      "inputs": [],
      "name": "mintTime",
      "outputs": [
        {
          "internalType": "uint256",
          "name": "",
          "type": "uint256"
        }
      ],
      "stateMutability": "view",
      "type": "function"
    },
    {
      "inputs": [],
      "name": "minter",
      "outputs": [
        {
          "internalType": "address",
          "name": "",
          "type": "address"
        }
      ],
      "stateMutability": "view",
      "type": "function"
    },
    {
      "inputs": [],
      "name": "name",
      "outputs": [
        {
          "internalType": "string",
          "name": "",
          "type": "string"
        }
      ],
      "stateMutability": "view",
      "type": "function"
    },
    {
      "inputs": [
        {
          "internalType": "address",
          "name": "",
          "type": "address"
        }
      ],
      "name": "nonces",
      "outputs": [
        {
          "internalType": "uint256",
          "name": "",
          "type": "uint256"
        }
      ],
      "stateMutability": "view",
      "type": "function"
    },
    {
      "inputs": [
        {
          "internalType": "address",
          "name": "",
          "type": "address"
        }
      ],
      "name": "numCheckpoints",
      "outputs": [
        {
          "internalType": "uint32",
          "name": "",
          "type": "uint32"
        }
      ],
      "stateMutability": "view",
      "type": "function"
    },
    {
      "inputs": [],
      "name": "owner",
      "outputs": [
        {
          "internalType": "address",
          "name": "",
          "type": "address"
        }
      ],
      "stateMutability": "view",
      "type": "function"
    },
    {
      "inputs": [
        {
          "internalType": "uint256",
          "name": "tokenId",
          "type": "uint256"
        }
      ],
      "name": "ownerOf",
      "outputs": [
        {
          "internalType": "address",
          "name": "",
          "type": "address"
        }
      ],
      "stateMutability": "view",
      "type": "function"
    },
    {
      "inputs": [],
      "name": "priceMultiple",
      "outputs": [
        {
          "internalType": "uint256",
          "name": "",
          "type": "uint256"
        }
      ],
      "stateMutability": "view",
      "type": "function"
    },
    {
      "inputs": [],
      "name": "priceSeed",
      "outputs": [
        {
          "internalType": "uint256",
          "name": "maxPrice",
          "type": "uint256"
        },
        {
          "internalType": "uint256",
          "name": "minPrice",
          "type": "uint256"
        },
        {
          "internalType": "uint256",
          "name": "priceDelta",
          "type": "uint256"
        },
        {
          "internalType": "uint256",
          "name": "timeDelta",
          "type": "uint256"
        },
        {
          "internalType": "uint256",
          "name": "expirationTime",
          "type": "uint256"
        }
      ],
      "stateMutability": "view",
      "type": "function"
    },
    {
      "inputs": [],
      "name": "proxyRegistry",
      "outputs": [
        {
          "internalType": "contract IProxyRegistry",
          "name": "",
          "type": "address"
        }
      ],
      "stateMutability": "view",
      "type": "function"
    },
    {
      "inputs": [],
      "name": "renounceOwnership",
      "outputs": [],
      "stateMutability": "nonpayable",
      "type": "function"
    },
    {
      "inputs": [
        {
          "internalType": "address",
          "name": "from",
          "type": "address"
        },
        {
          "internalType": "address",
          "name": "to",
          "type": "address"
        },
        {
          "internalType": "uint256",
          "name": "tokenId",
          "type": "uint256"
        }
      ],
      "name": "safeTransferFrom",
      "outputs": [],
      "stateMutability": "nonpayable",
      "type": "function"
    },
    {
      "inputs": [
        {
          "internalType": "address",
          "name": "from",
          "type": "address"
        },
        {
          "internalType": "address",
          "name": "to",
          "type": "address"
        },
        {
          "internalType": "uint256",
          "name": "tokenId",
          "type": "uint256"
        },
        {
          "internalType": "bytes",
          "name": "_data",
          "type": "bytes"
        }
      ],
      "name": "safeTransferFrom",
      "outputs": [],
      "stateMutability": "nonpayable",
      "type": "function"
    },
    {
      "inputs": [],
      "name": "seeder",
      "outputs": [
        {
          "internalType": "contract INounsSeeder",
          "name": "",
          "type": "address"
        }
      ],
      "stateMutability": "view",
      "type": "function"
    },
    {
      "inputs": [
        {
          "internalType": "uint256",
          "name": "",
          "type": "uint256"
        }
      ],
      "name": "seeds",
      "outputs": [
        {
          "internalType": "uint48",
          "name": "background",
          "type": "uint48"
        },
        {
          "internalType": "uint48",
          "name": "body",
          "type": "uint48"
        },
        {
          "internalType": "uint48",
          "name": "accessory",
          "type": "uint48"
        },
        {
          "internalType": "uint48",
          "name": "head",
          "type": "uint48"
        },
        {
          "internalType": "uint48",
          "name": "glasses",
          "type": "uint48"
        }
      ],
      "stateMutability": "view",
      "type": "function"
    },
    {
      "inputs": [
        {
          "internalType": "address",
          "name": "operator",
          "type": "address"
        },
        {
          "internalType": "bool",
          "name": "approved",
          "type": "bool"
        }
      ],
      "name": "setApprovalForAll",
      "outputs": [],
      "stateMutability": "nonpayable",
      "type": "function"
    },
    {
      "inputs": [
        {
          "internalType": "address",
          "name": "_committee",
          "type": "address"
        }
      ],
      "name": "setCommittee",
      "outputs": [],
      "stateMutability": "nonpayable",
      "type": "function"
    },
    {
      "inputs": [
        {
          "internalType": "address",
          "name": "_developper",
          "type": "address"
        }
      ],
      "name": "setDevelopper",
      "outputs": [],
      "stateMutability": "nonpayable",
      "type": "function"
    },
    {
      "inputs": [
        {
          "internalType": "address",
          "name": "_minter",
          "type": "address"
        }
      ],
      "name": "setMinter",
      "outputs": [],
      "stateMutability": "nonpayable",
      "type": "function"
    },
    {
      "inputs": [
        {
          "components": [
            {
              "internalType": "uint256",
              "name": "maxPrice",
              "type": "uint256"
            },
            {
              "internalType": "uint256",
              "name": "minPrice",
              "type": "uint256"
            },
            {
              "internalType": "uint256",
              "name": "priceDelta",
              "type": "uint256"
            },
            {
              "internalType": "uint256",
              "name": "timeDelta",
              "type": "uint256"
            },
            {
              "internalType": "uint256",
              "name": "expirationTime",
              "type": "uint256"
            }
          ],
          "internalType": "struct NounsToken.PriceSeed",
          "name": "_priceSeed",
          "type": "tuple"
        }
      ],
      "name": "setPriceData",
      "outputs": [],
      "stateMutability": "nonpayable",
      "type": "function"
    },
    {
      "inputs": [
        {
          "internalType": "bytes4",
          "name": "interfaceId",
          "type": "bytes4"
        }
      ],
      "name": "supportsInterface",
      "outputs": [
        {
          "internalType": "bool",
          "name": "",
          "type": "bool"
        }
      ],
      "stateMutability": "view",
      "type": "function"
    },
    {
      "inputs": [],
      "name": "symbol",
      "outputs": [
        {
          "internalType": "string",
          "name": "",
          "type": "string"
        }
      ],
      "stateMutability": "view",
      "type": "function"
    },
    {
      "inputs": [],
      "name": "testTime",
      "outputs": [
        {
          "internalType": "uint256",
          "name": "",
          "type": "uint256"
        }
      ],
      "stateMutability": "view",
      "type": "function"
    },
    {
      "inputs": [
        {
          "internalType": "uint256",
          "name": "index",
          "type": "uint256"
        }
      ],
      "name": "tokenByIndex",
      "outputs": [
        {
          "internalType": "uint256",
          "name": "",
          "type": "uint256"
        }
      ],
      "stateMutability": "view",
      "type": "function"
    },
    {
      "inputs": [
        {
          "internalType": "address",
          "name": "owner",
          "type": "address"
        },
        {
          "internalType": "uint256",
          "name": "index",
          "type": "uint256"
        }
      ],
      "name": "tokenOfOwnerByIndex",
      "outputs": [
        {
          "internalType": "uint256",
          "name": "",
          "type": "uint256"
        }
      ],
      "stateMutability": "view",
      "type": "function"
    },
    {
      "inputs": [
        {
          "internalType": "uint256",
          "name": "tokenId",
          "type": "uint256"
        }
      ],
      "name": "tokenPrice",
      "outputs": [
        {
          "internalType": "uint256",
          "name": "",
          "type": "uint256"
        }
      ],
      "stateMutability": "view",
      "type": "function"
    },
    {
      "inputs": [
        {
          "internalType": "uint256",
          "name": "tokenId",
          "type": "uint256"
        }
      ],
      "name": "tokenURI",
      "outputs": [
        {
          "internalType": "string",
          "name": "",
          "type": "string"
        }
      ],
      "stateMutability": "view",
      "type": "function"
    },
    {
      "inputs": [],
      "name": "totalSupply",
      "outputs": [
        {
          "internalType": "uint256",
          "name": "",
          "type": "uint256"
        }
      ],
      "stateMutability": "view",
      "type": "function"
    },
    {
      "inputs": [],
      "name": "transfer",
      "outputs": [],
      "stateMutability": "nonpayable",
      "type": "function"
    },
    {
      "inputs": [
        {
          "internalType": "address",
          "name": "from",
          "type": "address"
        },
        {
          "internalType": "address",
          "name": "to",
          "type": "address"
        },
        {
          "internalType": "uint256",
          "name": "tokenId",
          "type": "uint256"
        }
      ],
      "name": "transferFrom",
      "outputs": [],
      "stateMutability": "nonpayable",
      "type": "function"
    },
    {
      "inputs": [
        {
          "internalType": "address",
          "name": "newOwner",
          "type": "address"
        }
      ],
      "name": "transferOwnership",
      "outputs": [],
      "stateMutability": "nonpayable",
      "type": "function"
    },
    {
      "inputs": [
        {
          "internalType": "address",
          "name": "delegator",
          "type": "address"
        }
      ],
      "name": "votesToDelegate",
      "outputs": [
        {
          "internalType": "uint96",
          "name": "",
          "type": "uint96"
        }
      ],
      "stateMutability": "view",
      "type": "function"
    }
  ],
  "bytecode": "0x60a06040523480156200001157600080fd5b5060405162004bb338038062004bb3833981016040819052620000349162000256565b6040518060400160405280600a8152602001694e6f756e73206c6f766560b01b815250604051806040016040528060048152602001632727aaa760e11b8152506200008e620000886200014a60201b60201c565b6200014e565b8151620000a39060019060208501906200019e565b508051620000b99060029060208401906200019e565b5050600f80546001600160a01b03199081166001600160a01b03998a1617909155601180548216978916979097179096555060128054861694871694909417909355601d80549094169190941617909155606090811b6001600160601b031916608090815282516017556020830151601855604083015160195590820151601a550151601b556001601c55620003a9565b3390565b600080546001600160a01b038381166001600160a01b0319831681178455604051919092169283917f8be0079c531659141344cd1fd0a4f28419497f9722a3daafe3b4186f6b6457e09190a35050565b828054620001ac9062000353565b90600052602060002090601f016020900481019282620001d057600085556200021b565b82601f10620001eb57805160ff19168380011785556200021b565b828001600101855582156200021b579182015b828111156200021b578251825591602001919060010190620001fe565b50620002299291506200022d565b5090565b5b808211156200022957600081556001016200022e565b8051620002518162000390565b919050565b6000806000806000808688036101408112156200027257600080fd5b87516200027f8162000390565b6020890151909750620002928162000390565b6040890151909650620002a58162000390565b6060890151909550620002b88162000390565b935060a0607f1982011215620002cd57600080fd5b5060405160a081016001600160401b0381118282101715620002ff57634e487b7160e01b600052604160045260246000fd5b80604052506080880151815260a0880151602082015260c0880151604082015260e0880151606082015261010088015160808201528092505062000347610120880162000244565b90509295509295509295565b600181811c908216806200036857607f821691505b602082108114156200038a57634e487b7160e01b600052602260045260246000fd5b50919050565b6001600160a01b0381168114620003a657600080fd5b50565b60805160601c6147e4620003cf6000396000818161095401526125b301526147e46000f3fe6080604052600436106103815760003560e01c8063715018a6116101d1578063bddae40e11610102578063e7a324dc116100a0578063f0503e801161006f578063f0503e8014610ae8578063f1127ed814610b9b578063f2fde38b14610c10578063fca3b5aa14610c3057600080fd5b8063e7a324dc14610a5f578063e9580e9114610a93578063e985e9c514610ab3578063ef2d174614610ad357600080fd5b8063d4ddce8a116100dc578063d4ddce8a146109f6578063d864e74014610a16578063d96a094a14610a36578063dcc70d5214610a4957600080fd5b8063bddae40e14610996578063c3cda520146109b6578063c87b56dd146109d657600080fd5b80638da5cb5b1161016f578063a4a2816811610149578063a4a28168146108cb578063b4b5ea5714610922578063b50cbd9f14610942578063b88d4fde1461097657600080fd5b80638da5cb5b1461087857806395d89b4114610896578063a22cb465146108ab57600080fd5b80637ecebe00116101ab5780637ecebe0014610800578063864781221461082d578063864a28ec146108435780638a4068dd1461086357600080fd5b8063715018a61461079e57806376daebe1146107b3578063782d6fe1146107c857600080fd5b80632f745c59116102b65780634f6ccce7116102545780636352211e116102235780636352211e146106f6578063684931ed146107165780636fcfff451461073657806370a082311461077e57600080fd5b80634f6ccce714610676578063587cde1e146106965780635ac1e3bb146106b65780635c19a95c146106d657600080fd5b80633b1c3d39116102905780633b1c3d39146106005780633c35a0c11461062057806342842e0e1461063657806342966c681461065657600080fd5b80632f745c5914610599578063303e74df146105b9578063313ce567146105d957600080fd5b80630e105983116103235780631e688e10116102fd5780631e688e101461050f57806320606b701461053057806323b872dd1461056457806326ccf7c81461058457600080fd5b80630e105983146104c55780631249c58b146104e557806318160ddd146104fa57600080fd5b806306fdde031161035f57806306fdde0314610429578063075461721461044b578063081812fc14610483578063095ea7b3146104a357600080fd5b806301ffc9a714610386578063026833c7146103bb57806303e65c961461040a575b600080fd5b34801561039257600080fd5b506103a66103a1366004614093565b610c50565b60405190151581526020015b60405180910390f35b3480156103c757600080fd5b50601754601854601954601a54601b546103e2949392919085565b604080519586526020860194909452928401919091526060830152608082015260a0016103b2565b34801561041657600080fd5b506015545b6040519081526020016103b2565b34801561043557600080fd5b5061043e610c94565b6040516103b2919061432f565b34801561045757600080fd5b50600f5461046b906001600160a01b031681565b6040516001600160a01b0390911681526020016103b2565b34801561048f57600080fd5b5061046b61049e3660046141fb565b610d26565b3480156104af57600080fd5b506104c36104be366004613fce565b610dc0565b005b3480156104d157600080fd5b506104c36104e0366004613e38565b610ef2565b3480156104f157600080fd5b5061041b610f6e565b34801561050657600080fd5b5060095461041b565b34801561051b57600080fd5b506012546103a690600160a01b900460ff1681565b34801561053c57600080fd5b5061041b7f8cad95687ba82c2ce50e74f7b754645e5117c3a5bec8151c0726d5857980a86681565b34801561057057600080fd5b506104c361057f366004613eab565b611068565b34801561059057600080fd5b506104c36110ef565b3480156105a557600080fd5b5061041b6105b4366004613fce565b611140565b3480156105c557600080fd5b5060115461046b906001600160a01b031681565b3480156105e557600080fd5b506105ee600081565b60405160ff90911681526020016103b2565b34801561060c57600080fd5b50601d5461046b906001600160a01b031681565b34801561062c57600080fd5b5061041b60165481565b34801561064257600080fd5b506104c3610651366004613eab565b6111e8565b34801561066257600080fd5b506104c36106713660046141fb565b611203565b34801561068257600080fd5b5061041b6106913660046141fb565b611294565b3480156106a257600080fd5b5061046b6106b1366004613e38565b611338565b3480156106c257600080fd5b5061043e6106d13660046141fb565b61136a565b3480156106e257600080fd5b506104c36106f1366004613e38565b6114ef565b34801561070257600080fd5b5061046b6107113660046141fb565b61150d565b34801561072257600080fd5b5060125461046b906001600160a01b031681565b34801561074257600080fd5b50610769610751366004613e38565b600d6020526000908152604090205463ffffffff1681565b60405163ffffffff90911681526020016103b2565b34801561078a57600080fd5b5061041b610799366004613e38565b611598565b3480156107aa57600080fd5b506104c3611632565b3480156107bf57600080fd5b506104c3611698565b3480156107d457600080fd5b506107e86107e3366004613fce565b6117a5565b6040516001600160601b0390911681526020016103b2565b34801561080c57600080fd5b5061041b61081b366004613e38565b600e6020526000908152604090205481565b34801561083957600080fd5b5061041b60155481565b34801561084f57600080fd5b506104c361085e36600461413b565b611a45565b34801561086f57600080fd5b506104c3611b3f565b34801561088457600080fd5b506000546001600160a01b031661046b565b3480156108a257600080fd5b5061043e611bd4565b3480156108b757600080fd5b506104c36108c6366004613f9b565b611be3565b3480156108d757600080fd5b506108e0611ca8565b6040516103b29190600060a082019050825182526020830151602083015260408301516040830152606083015160608301526080830151608083015292915050565b34801561092e57600080fd5b506107e861093d366004613e38565b611d0f565b34801561094e57600080fd5b5061046b7f000000000000000000000000000000000000000000000000000000000000000081565b34801561098257600080fd5b506104c3610991366004613eec565b611d8d565b3480156109a257600080fd5b506104c36109b1366004613e38565b611e1b565b3480156109c257600080fd5b506104c36109d1366004613ffa565b611e97565b3480156109e257600080fd5b5061043e6109f13660046141fb565b6121c9565b348015610a0257600080fd5b5061041b610a113660046141fb565b6122f1565b348015610a2257600080fd5b5060105461046b906001600160a01b031681565b61041b610a443660046141fb565b61237c565b348015610a5557600080fd5b5061041b601c5481565b348015610a6b57600080fd5b5061041b7fe48329057bfd03d55e49b547132e39cffd9c1820ad7b9d4c5307691425d15adf81565b348015610a9f57600080fd5b506107e8610aae366004613e38565b612548565b348015610abf57600080fd5b506103a6610ace366004613e72565b612574565b348015610adf57600080fd5b5060145461041b565b348015610af457600080fd5b50610b62610b033660046141fb565b60136020526000908152604090205465ffffffffffff80821691660100000000000081048216916c01000000000000000000000000820481169172010000000000000000000000000000000000008104821691600160c01b9091041685565b6040805165ffffffffffff968716815294861660208601529285169284019290925283166060830152909116608082015260a0016103b2565b348015610ba757600080fd5b50610bec610bb636600461405c565b600c60209081526000928352604080842090915290825290205463ffffffff81169064010000000090046001600160601b031682565b6040805163ffffffff90931683526001600160601b039091166020830152016103b2565b348015610c1c57600080fd5b506104c3610c2b366004613e38565b612672565b348015610c3c57600080fd5b506104c3610c4b366004613e38565b612751565b60006001600160e01b031982167f780e9d63000000000000000000000000000000000000000000000000000000001480610c8e5750610c8e82612859565b92915050565b606060018054610ca3906145bd565b80601f0160208091040260200160405190810160405280929190818152602001828054610ccf906145bd565b8015610d1c5780601f10610cf157610100808354040283529160200191610d1c565b820191906000526020600020905b815481529060010190602001808311610cff57829003601f168201915b5050505050905090565b6000818152600360205260408120546001600160a01b0316610da45760405162461bcd60e51b815260206004820152602c60248201527f4552433732313a20617070726f76656420717565727920666f72206e6f6e657860448201526b34b9ba32b73a103a37b5b2b760a11b60648201526084015b60405180910390fd5b506000908152600560205260409020546001600160a01b031690565b6000610dcb8261150d565b9050806001600160a01b0316836001600160a01b03161415610e555760405162461bcd60e51b815260206004820152602160248201527f4552433732313a20617070726f76616c20746f2063757272656e74206f776e6560448201527f72000000000000000000000000000000000000000000000000000000000000006064820152608401610d9b565b336001600160a01b0382161480610e715750610e718133612574565b610ee35760405162461bcd60e51b815260206004820152603860248201527f4552433732313a20617070726f76652063616c6c6572206973206e6f74206f7760448201527f6e6572206e6f7220617070726f76656420666f7220616c6c00000000000000006064820152608401610d9b565b610eed83836128f4565b505050565b600f546001600160a01b03163314610f4c5760405162461bcd60e51b815260206004820152601860248201527f53656e646572206973206e6f7420746865206d696e74657200000000000000006044820152606401610d9b565b601d80546001600160a01b0319166001600160a01b0392909216919091179055565b600f546000906001600160a01b03163314610fcb5760405162461bcd60e51b815260206004820152601860248201527f53656e646572206973206e6f7420746865206d696e74657200000000000000006044820152606401610d9b565b6014541561101b5760405162461bcd60e51b815260206004820152600f60248201527f4669727374206d696e74206f6e6c7900000000000000000000000000000000006044820152606401610d9b565b600f5460148054611044926001600160a01b031691600061103b836145f8565b91905055612962565b5061104d612bda565b6014805461106391309190600061103b836145f8565b905090565b6110723382612c15565b6110e45760405162461bcd60e51b815260206004820152603160248201527f4552433732313a207472616e736665722063616c6c6572206973206e6f74206f60448201527f776e6572206e6f7220617070726f7665640000000000000000000000000000006064820152608401610d9b565b610eed838383612cec565b6000601554426110ff9190614535565b601b5490915081111561111e5761111e60016014546106719190614535565b611126612bda565b6014805461113c91309190600061103b836145f8565b5050565b600061114b83611598565b82106111bf5760405162461bcd60e51b815260206004820152602b60248201527f455243373231456e756d657261626c653a206f776e657220696e646578206f7560448201527f74206f6620626f756e64730000000000000000000000000000000000000000006064820152608401610d9b565b506001600160a01b03919091166000908152600760209081526040808320938352929052205490565b610eed83838360405180602001604052806000815250611d8d565b600f546001600160a01b0316331461125d5760405162461bcd60e51b815260206004820152601860248201527f53656e646572206973206e6f7420746865206d696e74657200000000000000006044820152606401610d9b565b61126681612eab565b60405181907f806be94a2ac8b92d74e99aa8add5a8e54528a01ec914a9e00d201a6480ed986390600090a250565b600061129f60095490565b82106113135760405162461bcd60e51b815260206004820152602c60248201527f455243373231456e756d657261626c653a20676c6f62616c20696e646578206f60448201527f7574206f6620626f756e647300000000000000000000000000000000000000006064820152608401610d9b565b6009828154811061132657611326614669565b90600052602060002001549050919050565b6001600160a01b038082166000908152600b602052604081205490911680156113615780611363565b825b9392505050565b6000818152600360205260409020546060906001600160a01b03166113e55760405162461bcd60e51b815260206004820152602b60248201527f4e6f756e73546f6b656e3a2055524920717565727920666f72206e6f6e65786960448201526a39ba32b73a103a37b5b2b760a91b6064820152608401610d9b565b60006113f083612f52565b90506000816040516020016114059190614240565b60405160208183030381529060405290506000826040516020016114299190614273565b60408051601f1981840301815282825260115460008981526013602052929092207f87db11bd0000000000000000000000000000000000000000000000000000000084529093506001600160a01b03909116916387db11bd916114929186918691600401614342565b60006040518083038186803b1580156114aa57600080fd5b505afa1580156114be573d6000803e3d6000fd5b505050506040513d6000823e601f3d908101601f191682016040526114e691908101906140cd565b95945050505050565b6001600160a01b0381166115005750335b61150a3382613084565b50565b6000818152600360205260408120546001600160a01b031680610c8e5760405162461bcd60e51b815260206004820152602960248201527f4552433732313a206f776e657220717565727920666f72206e6f6e657869737460448201527f656e7420746f6b656e00000000000000000000000000000000000000000000006064820152608401610d9b565b60006001600160a01b0382166116165760405162461bcd60e51b815260206004820152602a60248201527f4552433732313a2062616c616e636520717565727920666f7220746865207a6560448201527f726f2061646472657373000000000000000000000000000000000000000000006064820152608401610d9b565b506001600160a01b031660009081526004602052604090205490565b6000546001600160a01b0316331461168c5760405162461bcd60e51b815260206004820181905260248201527f4f776e61626c653a2063616c6c6572206973206e6f7420746865206f776e65726044820152606401610d9b565b6116966000613104565b565b6000546001600160a01b031633146116f25760405162461bcd60e51b815260206004820181905260248201527f4f776e61626c653a2063616c6c6572206973206e6f7420746865206f776e65726044820152606401610d9b565b601254600160a01b900460ff161561174c5760405162461bcd60e51b815260206004820152601060248201527f4d696e746572206973206c6f636b6564000000000000000000000000000000006044820152606401610d9b565b601280547fffffffffffffffffffffff00ffffffffffffffffffffffffffffffffffffffff16600160a01b1790556040517f192417b3f16b1ce69e0c59b0376549666650245ffc05e4b2569089dda8589b6690600090a1565b600043821061181c5760405162461bcd60e51b815260206004820152603760248201527f455243373231436865636b706f696e7461626c653a3a6765745072696f72566f60448201527f7465733a206e6f74207965742064657465726d696e65640000000000000000006064820152608401610d9b565b6001600160a01b0383166000908152600d602052604090205463ffffffff168061184a576000915050610c8e565b6001600160a01b0384166000908152600c60205260408120849161186f60018561454c565b63ffffffff908116825260208201929092526040016000205416116118e3576001600160a01b0384166000908152600c60205260408120906118b260018461454c565b63ffffffff16815260208101919091526040016000205464010000000090046001600160601b03169150610c8e9050565b6001600160a01b0384166000908152600c6020908152604080832083805290915290205463ffffffff1683101561191e576000915050610c8e565b60008061192c60018461454c565b90505b8163ffffffff168163ffffffff1611156119ff5760006002611951848461454c565b61195b91906144f3565b611965908361454c565b6001600160a01b0388166000908152600c6020908152604080832063ffffffff8581168552908352928190208151808301909252549283168082526401000000009093046001600160601b0316918101919091529192508714156119d357602001519450610c8e9350505050565b805163ffffffff168711156119ea578193506119f8565b6119f560018361454c565b92505b505061192f565b506001600160a01b0385166000908152600c6020908152604080832063ffffffff909416835292905220546001600160601b036401000000009091041691505092915050565b600f546001600160a01b03163314611a9f5760405162461bcd60e51b815260206004820152601860248201527f53656e646572206973206e6f7420746865206d696e74657200000000000000006044820152606401610d9b565b6020810151815111611b195760405162461bcd60e51b815260206004820152602760248201527f4d6178207072696365206d757374206265206c6172676572207468616e204d6960448201527f6e205072696365000000000000000000000000000000000000000000000000006064820152608401610d9b565b8051601755602081015160185560408101516019556060810151601a5560800151601b55565b6000546001600160a01b03163314611b995760405162461bcd60e51b815260206004820181905260248201527f4f776e61626c653a2063616c6c6572206973206e6f7420746865206f776e65726044820152606401610d9b565b6010546040516001600160a01b039091169081904780156108fc02916000818181858888f1935050505015801561113c573d6000803e3d6000fd5b606060028054610ca3906145bd565b6001600160a01b038216331415611c3c5760405162461bcd60e51b815260206004820152601960248201527f4552433732313a20617070726f766520746f2063616c6c6572000000000000006044820152606401610d9b565b3360008181526006602090815260408083206001600160a01b03871680855290835292819020805460ff191686151590811790915590519081529192917f17307eab39ab6107e8899845ad3d59bd9653f200f220920489ca2b5937696c31910160405180910390a35050565b611cda6040518060a0016040528060008152602001600081526020016000815260200160008152602001600081525090565b506040805160a0810182526017548152601854602082015260195491810191909152601a546060820152601b54608082015290565b6001600160a01b0381166000908152600d602052604081205463ffffffff1680611d3a576000611363565b6001600160a01b0383166000908152600c6020526040812090611d5e60018461454c565b63ffffffff16815260208101919091526040016000205464010000000090046001600160601b03169392505050565b611d973383612c15565b611e095760405162461bcd60e51b815260206004820152603160248201527f4552433732313a207472616e736665722063616c6c6572206973206e6f74206f60448201527f776e6572206e6f7220617070726f7665640000000000000000000000000000006064820152608401610d9b565b611e1584848484613154565b50505050565b6000546001600160a01b03163314611e755760405162461bcd60e51b815260206004820181905260248201527f4f776e61626c653a2063616c6c6572206973206e6f7420746865206f776e65726044820152606401610d9b565b601080546001600160a01b0319166001600160a01b0392909216919091179055565b60007f8cad95687ba82c2ce50e74f7b754645e5117c3a5bec8151c0726d5857980a866611ec2610c94565b80519060200120611ed04690565b60408051602080820195909552808201939093526060830191909152306080808401919091528151808403909101815260a0830182528051908401207fe48329057bfd03d55e49b547132e39cffd9c1820ad7b9d4c5307691425d15adf60c08401526001600160a01b038b1660e084015261010083018a90526101208084018a9052825180850390910181526101408401909252815191909301207f1901000000000000000000000000000000000000000000000000000000000000610160830152610162820183905261018282018190529192506000906101a20160408051601f198184030181528282528051602091820120600080855291840180845281905260ff8a169284019290925260608301889052608083018790529092509060019060a0016020604051602081039080840390855afa158015612017573d6000803e3d6000fd5b5050604051601f1901519150506001600160a01b0381166120a05760405162461bcd60e51b815260206004820152603660248201527f455243373231436865636b706f696e7461626c653a3a64656c6567617465427960448201527f5369673a20696e76616c6964207369676e6174757265000000000000000000006064820152608401610d9b565b6001600160a01b0381166000908152600e602052604081208054916120c4836145f8565b91905055891461213c5760405162461bcd60e51b815260206004820152603260248201527f455243373231436865636b706f696e7461626c653a3a64656c6567617465427960448201527f5369673a20696e76616c6964206e6f6e636500000000000000000000000000006064820152608401610d9b565b874211156121b25760405162461bcd60e51b815260206004820152603660248201527f455243373231436865636b706f696e7461626c653a3a64656c6567617465427960448201527f5369673a207369676e61747572652065787069726564000000000000000000006064820152608401610d9b565b6121bc818b613084565b505050505b505050505050565b6000818152600360205260409020546060906001600160a01b03166122445760405162461bcd60e51b815260206004820152602b60248201527f4e6f756e73546f6b656e3a2055524920717565727920666f72206e6f6e65786960448201526a39ba32b73a103a37b5b2b760a91b6064820152608401610d9b565b6011546000838152601360205260409081902090517f3cfdafd30000000000000000000000000000000000000000000000000000000081526001600160a01b0390921691633cfdafd39161229d918691906004016143b2565b60006040518083038186803b1580156122b557600080fd5b505afa1580156122c9573d6000803e3d6000fd5b505050506040513d6000823e601f3d908101601f19168201604052610c8e91908101906140cd565b6000818152600360205260408120546001600160a01b03166123695760405162461bcd60e51b815260206004820152602b60248201527f4e6f756e73546f6b656e3a2055524920717565727920666f72206e6f6e65786960448201526a39ba32b73a103a37b5b2b760a91b6064820152608401610d9b565b506000908152601e602052604090205490565b6000806123888361150d565b90503360006123956131dd565b90506001600160a01b03831630146123ef5760405162461bcd60e51b815260206004820152601960248201527f4f776e6572206973206e6f742074686520636f6e7472616374000000000000006044820152606401610d9b565b60016014546123fe9190614535565b851461244c5760405162461bcd60e51b815260206004820152600f60248201527f4e6f74206c6174657374204e6f756e00000000000000000000000000000000006044820152606401610d9b565b8034101561249c5760405162461bcd60e51b815260206004820152601f60248201527f4d7573742073656e64206174206c656173742063757272656e745072696365006044820152606401610d9b565b6000858152601e602052604090203490556124b78286613258565b600a6014546124c69190614613565b6124ec57601d54601480546124ea926001600160a01b031691600061103b836145f8565b505b6040516001600160a01b038316815285907ff3919fe9a709ec82fb9fd1c54a2af7cf717bfe52a6c9b1f1ed8ea42d52ba392f9060200160405180910390a2612532612bda565b601480546114e691309190600061103b836145f8565b6000610c8e61255683611598565b6040518060600160405280603d815260200161473b603d9139613404565b6040517fc45527910000000000000000000000000000000000000000000000000000000081526001600160a01b038381166004830152600091818416917f0000000000000000000000000000000000000000000000000000000000000000169063c45527919060240160206040518083038186803b1580156125f557600080fd5b505afa158015612609573d6000803e3d6000fd5b505050506040513d601f19601f8201168201806040525081019061262d9190613e55565b6001600160a01b0316141561264457506001610c8e565b6001600160a01b0380841660009081526006602090815260408083209386168352929052205460ff16611363565b6000546001600160a01b031633146126cc5760405162461bcd60e51b815260206004820181905260248201527f4f776e61626c653a2063616c6c6572206973206e6f7420746865206f776e65726044820152606401610d9b565b6001600160a01b0381166127485760405162461bcd60e51b815260206004820152602660248201527f4f776e61626c653a206e6577206f776e657220697320746865207a65726f206160448201527f64647265737300000000000000000000000000000000000000000000000000006064820152608401610d9b565b61150a81613104565b6000546001600160a01b031633146127ab5760405162461bcd60e51b815260206004820181905260248201527f4f776e61626c653a2063616c6c6572206973206e6f7420746865206f776e65726044820152606401610d9b565b601254600160a01b900460ff16156128055760405162461bcd60e51b815260206004820152601060248201527f4d696e746572206973206c6f636b6564000000000000000000000000000000006044820152606401610d9b565b600f80546001600160a01b0319166001600160a01b0383169081179091556040519081527fad0f299ec81a386c98df0ac27dae11dd020ed1b56963c53a7292e7a3a314539a9060200160405180910390a150565b60006001600160e01b031982167f80ac58cd0000000000000000000000000000000000000000000000000000000014806128bc57506001600160e01b031982167f5b5e139f00000000000000000000000000000000000000000000000000000000145b80610c8e57507f01ffc9a7000000000000000000000000000000000000000000000000000000006001600160e01b0319831614610c8e565b600081815260056020526040902080546001600160a01b0319166001600160a01b03841690811790915581906129298261150d565b6001600160a01b03167f8c5be1e5ebec7d5bd14f71427d1e84f3dd0314c0f7b2291e5b200ac8c7c3b92560405160405180910390a45050565b6012546011546040517f422e2e99000000000000000000000000000000000000000000000000000000008152600481018490526001600160a01b0391821660248201526000928392169063422e2e999060440160a06040518083038186803b1580156129cd57600080fd5b505afa1580156129e1573d6000803e3d6000fd5b505050506040513d601f19601f82011682018060405250810190612a05919061418b565b60008481526013602090815260408083208451815486850151878501516060808a015160809a8b015165ffffffffffff9687166bffffffffffffffffffffffff199096169590951766010000000000009487168502177fffffffffffffffff000000000000000000000000ffffffffffffffffffffffff166c0100000000000000000000000093871684027fffffffffffffffff000000000000ffffffffffffffffffffffffffffffffffff161772010000000000000000000000000000000000009187168202177fffff000000000000ffffffffffffffffffffffffffffffffffffffffffffffff8116600160c01b968816870290811798899055895160a081018b52918816908816178152938704861698840198909852908504841695820195909552948304821693850193909352919004169281019290925254909150612b59906001600160a01b0316858561343c565b827f1106ee9d020bfbb5ee34cf5535a5fbf024a011bd130078088cbf124ab309247882604051612bca9190815165ffffffffffff9081168252602080840151821690830152604080840151821690830152606080840151821690830152608092830151169181019190915260a00190565b60405180910390a2509092915050565b4260158190556040519081527f821964bd9a1d2293691ad21ae7e91848254493a40c1c13fc88e032e6a14a94c99060200160405180910390a1565b6000818152600360205260408120546001600160a01b0316612c8e5760405162461bcd60e51b815260206004820152602c60248201527f4552433732313a206f70657261746f7220717565727920666f72206e6f6e657860448201526b34b9ba32b73a103a37b5b2b760a11b6064820152608401610d9b565b6000612c998361150d565b9050806001600160a01b0316846001600160a01b03161480612cd45750836001600160a01b0316612cc984610d26565b6001600160a01b0316145b80612ce45750612ce48185612574565b949350505050565b826001600160a01b0316612cff8261150d565b6001600160a01b031614612d7b5760405162461bcd60e51b815260206004820152602960248201527f4552433732313a207472616e73666572206f6620746f6b656e2074686174206960448201527f73206e6f74206f776e00000000000000000000000000000000000000000000006064820152608401610d9b565b6001600160a01b038216612ddd5760405162461bcd60e51b8152602060048201526024808201527f4552433732313a207472616e7366657220746f20746865207a65726f206164646044820152637265737360e01b6064820152608401610d9b565b612de88383836135d2565b612df36000826128f4565b6001600160a01b0383166000908152600460205260408120805460019290612e1c908490614535565b90915550506001600160a01b0382166000908152600460205260408120805460019290612e4a90849061447d565b909155505060008181526003602052604080822080546001600160a01b0319166001600160a01b0386811691821790925591518493918716917fddf252ad1be2c89b69c2b068fc378daa952ba7f163c4a11628f55a4df523b3ef91a4505050565b6000612eb68261150d565b9050612ec4816000846135d2565b612ecf6000836128f4565b6001600160a01b0381166000908152600460205260408120805460019290612ef8908490614535565b909155505060008281526003602052604080822080546001600160a01b0319169055518391906001600160a01b038416907fddf252ad1be2c89b69c2b068fc378daa952ba7f163c4a11628f55a4df523b3ef908390a45050565b606081612f9257505060408051808201909152600181527f3000000000000000000000000000000000000000000000000000000000000000602082015290565b8160005b8115612fbc5780612fa6816145f8565b9150612fb59050600a836144df565b9150612f96565b60008167ffffffffffffffff811115612fd757612fd761467f565b6040519080825280601f01601f191660200182016040528015613001576020820181803683370190505b5090505b8415612ce457613016600183614535565b9150613023600a86614613565b61302e90603061447d565b60f81b81838151811061304357613043614669565b60200101907effffffffffffffffffffffffffffffffffffffffffffffffffffffffffffff1916908160001a90535061307d600a866144df565b9450613005565b600061308f83611338565b6001600160a01b038481166000818152600b602052604080822080546001600160a01b031916888616908117909155905194955093928516927f3134e8a2e6d97e929a7e54011ea5485d7d196dd5f0ba4d4ef95803e8e3fc257f9190a460006130f784612548565b9050611e158284836135f5565b600080546001600160a01b038381166001600160a01b0319831681178455604051919092169283917f8be0079c531659141344cd1fd0a4f28419497f9722a3daafe3b4186f6b6457e09190a35050565b61315f848484612cec565b61316b848484846137a3565b611e155760405162461bcd60e51b815260206004820152603260248201527f4552433732313a207472616e7366657220746f206e6f6e20455243373231526560448201527f63656976657220696d706c656d656e74657200000000000000000000000000006064820152608401610d9b565b600080601554426131ee9190614535565b601a5490915081101561320357505060175490565b601954601a546000919061321790846144df565b6132219190614516565b60185460175491925061323391614535565b8110613243575050601854919050565b601754613251908290614535565b9250505090565b30806132638361150d565b6001600160a01b0316146132df5760405162461bcd60e51b815260206004820152602d60248201527f4552433732313a207472616e73666572206f6620746f6b656e2074686174206960448201527f73206e6f742061646472657373000000000000000000000000000000000000006064820152608401610d9b565b6001600160a01b0383166133415760405162461bcd60e51b8152602060048201526024808201527f4552433732313a207472616e7366657220746f20746865207a65726f206164646044820152637265737360e01b6064820152608401610d9b565b61334c8184846135d2565b6001600160a01b0381166000908152600460205260408120805460019290613375908490614535565b90915550506001600160a01b03831660009081526004602052604081208054600192906133a390849061447d565b909155505060008281526003602052604080822080546001600160a01b0319166001600160a01b0387811691821790925591518593918516917fddf252ad1be2c89b69c2b068fc378daa952ba7f163c4a11628f55a4df523b3ef91a4505050565b6000816c0100000000000000000000000084106134345760405162461bcd60e51b8152600401610d9b919061432f565b509192915050565b6001600160a01b0382166134925760405162461bcd60e51b815260206004820181905260248201527f4552433732313a206d696e7420746f20746865207a65726f20616464726573736044820152606401610d9b565b6000818152600360205260409020546001600160a01b0316156134f75760405162461bcd60e51b815260206004820152601c60248201527f4552433732313a20746f6b656e20616c7265616479206d696e746564000000006044820152606401610d9b565b613503600083836135d2565b6001600160a01b038216600090815260046020526040812080546001929061352c90849061447d565b909155505060008181526003602052604080822080546001600160a01b0319166001600160a01b03868116919091179091559051839291861691907fddf252ad1be2c89b69c2b068fc378daa952ba7f163c4a11628f55a4df523b3ef908290a480826001600160a01b0316846001600160a01b03167fddf252ad1be2c89b69c2b068fc378daa952ba7f163c4a11628f55a4df523b3ef60405160405180910390a4505050565b6135dd838383613906565b610eed6135e984611338565b6135f284611338565b60015b816001600160a01b0316836001600160a01b03161415801561362057506000816001600160601b0316115b15610eed576001600160a01b038316156136e6576001600160a01b0383166000908152600d602052604081205463ffffffff1690816136605760006136ad565b6001600160a01b0385166000908152600c602052604081209061368460018561454c565b63ffffffff16815260208101919091526040016000205464010000000090046001600160601b03165b905060006136d48285604051806060016040528060378152602001614778603791396139be565b90506136e286848484613a00565b5050505b6001600160a01b03821615610eed576001600160a01b0382166000908152600d602052604081205463ffffffff16908161372157600061376e565b6001600160a01b0384166000908152600c602052604081209061374560018561454c565b63ffffffff16815260208101919091526040016000205464010000000090046001600160601b03165b9050600061379582856040518060600160405280603681526020016146c160369139613c18565b90506121c185848484613a00565b60006001600160a01b0384163b156138fb57604051630a85bd0160e11b81526001600160a01b0385169063150b7a02906137e79033908990889088906004016142f3565b602060405180830381600087803b15801561380157600080fd5b505af1925050508015613831575060408051601f3d908101601f1916820190925261382e918101906140b0565b60015b6138e1573d80801561385f576040519150601f19603f3d011682016040523d82523d6000602084013e613864565b606091505b5080516138d95760405162461bcd60e51b815260206004820152603260248201527f4552433732313a207472616e7366657220746f206e6f6e20455243373231526560448201527f63656976657220696d706c656d656e74657200000000000000000000000000006064820152608401610d9b565b805181602001fd5b6001600160e01b031916630a85bd0160e11b149050612ce4565b506001949350505050565b6001600160a01b0383166139615761395c81600980546000838152600a60205260408120829055600182018355919091527f6e1540171b6c0c960b71a7020d9f60077f6af931a8bbf590da0223dacf75c7af0155565b613984565b816001600160a01b0316836001600160a01b031614613984576139848382613c65565b6001600160a01b03821661399b57610eed81613d02565b826001600160a01b0316826001600160a01b031614610eed57610eed8282613db1565b6000836001600160601b0316836001600160601b0316111582906139f55760405162461bcd60e51b8152600401610d9b919061432f565b50612ce48385614571565b6000613a24436040518060800160405280604481526020016146f760449139613df5565b905060008463ffffffff16118015613a7e57506001600160a01b0385166000908152600c6020526040812063ffffffff831691613a6260018861454c565b63ffffffff908116825260208201929092526040016000205416145b15613b02576001600160a01b0385166000908152600c602052604081208391613aa860018861454c565b63ffffffff168152602081019190915260400160002080546001600160601b0392909216640100000000027fffffffffffffffffffffffffffffffff000000000000000000000000ffffffff909216919091179055613bc3565b60408051808201825263ffffffff80841682526001600160601b0380861660208085019182526001600160a01b038b166000908152600c82528681208b8616825290915294909420925183549451909116640100000000027fffffffffffffffffffffffffffffffff00000000000000000000000000000000909416911617919091179055613b92846001614495565b6001600160a01b0386166000908152600d60205260409020805463ffffffff191663ffffffff929092169190911790555b604080516001600160601b038086168252841660208201526001600160a01b038716917fdec2bacdd2f05b59de34da9b523dff8be42e5e38e818c82fdb0bae774387a724910160405180910390a25050505050565b600080613c2584866144bd565b9050846001600160601b0316816001600160601b031610158390613c5c5760405162461bcd60e51b8152600401610d9b919061432f565b50949350505050565b60006001613c7284611598565b613c7c9190614535565b600083815260086020526040902054909150808214613ccf576001600160a01b03841660009081526007602090815260408083208584528252808320548484528184208190558352600890915290208190555b5060009182526008602090815260408084208490556001600160a01b039094168352600781528383209183525290812055565b600954600090613d1490600190614535565b6000838152600a602052604081205460098054939450909284908110613d3c57613d3c614669565b906000526020600020015490508060098381548110613d5d57613d5d614669565b6000918252602080832090910192909255828152600a90915260408082208490558582528120556009805480613d9557613d95614653565b6001900381819060005260206000200160009055905550505050565b6000613dbc83611598565b6001600160a01b039093166000908152600760209081526040808320868452825280832085905593825260089052919091209190915550565b60008164010000000084106134345760405162461bcd60e51b8152600401610d9b919061432f565b805165ffffffffffff81168114613e3357600080fd5b919050565b600060208284031215613e4a57600080fd5b813561136381614695565b600060208284031215613e6757600080fd5b815161136381614695565b60008060408385031215613e8557600080fd5b8235613e9081614695565b91506020830135613ea081614695565b809150509250929050565b600080600060608486031215613ec057600080fd5b8335613ecb81614695565b92506020840135613edb81614695565b929592945050506040919091013590565b60008060008060808587031215613f0257600080fd5b8435613f0d81614695565b93506020850135613f1d81614695565b925060408501359150606085013567ffffffffffffffff811115613f4057600080fd5b8501601f81018713613f5157600080fd5b8035613f64613f5f82614455565b614424565b818152886020838501011115613f7957600080fd5b8160208401602083013760006020838301015280935050505092959194509250565b60008060408385031215613fae57600080fd5b8235613fb981614695565b915060208301358015158114613ea057600080fd5b60008060408385031215613fe157600080fd5b8235613fec81614695565b946020939093013593505050565b60008060008060008060c0878903121561401357600080fd5b863561401e81614695565b95506020870135945060408701359350606087013560ff8116811461404257600080fd5b9598949750929560808101359460a0909101359350915050565b6000806040838503121561406f57600080fd5b823561407a81614695565b9150602083013563ffffffff81168114613ea057600080fd5b6000602082840312156140a557600080fd5b8135611363816146aa565b6000602082840312156140c257600080fd5b8151611363816146aa565b6000602082840312156140df57600080fd5b815167ffffffffffffffff8111156140f657600080fd5b8201601f8101841361410757600080fd5b8051614115613f5f82614455565b81815285602083850101111561412a57600080fd5b6114e6826020830160208601614591565b600060a0828403121561414d57600080fd5b6141556143fb565b82358152602083013560208201526040830135604082015260608301356060820152608083013560808201528091505092915050565b600060a0828403121561419d57600080fd5b6141a56143fb565b6141ae83613e1d565b81526141bc60208401613e1d565b60208201526141cd60408401613e1d565b60408201526141de60608401613e1d565b60608201526141ef60808401613e1d565b60808201529392505050565b60006020828403121561420d57600080fd5b5035919050565b6000815180845261422c816020860160208601614591565b601f01601f19169290920160200192915050565b6a02737bab7103637bb32b9160ad1b81526000825161426681600b850160208701614591565b91909101600b0192915050565b6a02737bab7103637bb32b9160ad1b81526000825161429981600b850160208701614591565b7f20697320612066756e206f6620746865204e6f756e732044414f20616e64204e600b9390910192830152507f6f756e732041727420466573746976616c000000000000000000000000000000602b820152603c01919050565b60006001600160a01b038087168352808616602084015250836040830152608060608301526143256080830184614214565b9695505050505050565b6020815260006113636020830184614214565b60e08152600061435560e0830186614214565b82810360208401526143678186614214565b915050612ce46040830184805465ffffffffffff8082168452808260301c166020850152808260601c166040850152808260901c166060850152808260c01c16608085015250505050565b828152815465ffffffffffff8082166020840152603082901c81166040840152606082811c821690840152609082901c8116608084015260c091821c1660a08301528101611363565b60405160a0810167ffffffffffffffff8111828210171561441e5761441e61467f565b60405290565b604051601f8201601f1916810167ffffffffffffffff8111828210171561444d5761444d61467f565b604052919050565b600067ffffffffffffffff82111561446f5761446f61467f565b50601f01601f191660200190565b6000821982111561449057614490614627565b500190565b600063ffffffff8083168185168083038211156144b4576144b4614627565b01949350505050565b60006001600160601b038083168185168083038211156144b4576144b4614627565b6000826144ee576144ee61463d565b500490565b600063ffffffff8084168061450a5761450a61463d565b92169190910492915050565b600081600019048311821515161561453057614530614627565b500290565b60008282101561454757614547614627565b500390565b600063ffffffff8381169083168181101561456957614569614627565b039392505050565b60006001600160601b038381169083168181101561456957614569614627565b60005b838110156145ac578181015183820152602001614594565b83811115611e155750506000910152565b600181811c908216806145d157607f821691505b602082108114156145f257634e487b7160e01b600052602260045260246000fd5b50919050565b600060001982141561460c5761460c614627565b5060010190565b6000826146225761462261463d565b500690565b634e487b7160e01b600052601160045260246000fd5b634e487b7160e01b600052601260045260246000fd5b634e487b7160e01b600052603160045260246000fd5b634e487b7160e01b600052603260045260246000fd5b634e487b7160e01b600052604160045260246000fd5b6001600160a01b038116811461150a57600080fd5b6001600160e01b03198116811461150a57600080fdfe455243373231436865636b706f696e7461626c653a3a5f6d6f766544656c6567617465733a20616d6f756e74206f766572666c6f7773455243373231436865636b706f696e7461626c653a3a5f7772697465436865636b706f696e743a20626c6f636b206e756d62657220657863656564732033322062697473455243373231436865636b706f696e7461626c653a3a766f746573546f44656c65676174653a20616d6f756e7420657863656564732039362062697473455243373231436865636b706f696e7461626c653a3a5f6d6f766544656c6567617465733a20616d6f756e7420756e646572666c6f7773a26469706673582212209f712164b53f111db71f485a142fd543ca6d98237e1e116113d9ecab20ba252a64736f6c63430008060033",
  "linkReferences": {},
  "deployedLinkReferences": {}
}